{"abi":[{"inputs":[{"internalType":"uint256","name":"minimun","type":"uint256"},{"internalType":"address","name":"contractManager","type":"address"}],"stateMutability":"nonpayable","type":"constructor"},{"inputs":[],"name":"addContributers","outputs":[],"stateMutability":"payable","type":"function"},{"inputs":[{"internalType":"uint256","name":"requestId","type":"uint256"}],"name":"approveRequest","outputs":[],"stateMutability":"nonpayable","type":"function"},{"inputs":[{"internalType":"uint256","name":"","type":"uint256"}],"name":"campaignRequest","outputs":[{"internalType":"string","name":"description","type":"string"},{"internalType":"uint256","name":"moneyRequired","type":"uint256"},{"internalType":"address payable","name":"recepient","type":"address"},{"internalType":"bool","name":"isCompleted","type":"bool"},{"internalType":"uint256","name":"approversCount","type":"uint256"}],"stateMutability":"view","type":"function"},{"inputs":[],"name":"contarctSummary","outputs":[{"internalType":"uint256","name":"","type":"uint256"},{"internalType":"uint256","name":"","type":"uint256"},{"internalType":"uint256","name":"","type":"uint256"},{"internalType":"uint256","name":"","type":"uint256"},{"internalType":"address","name":"","type":"address"}],"stateMutability":"view","type":"function"},{"inputs":[{"internalType":"address","name":"","type":"address"}],"name":"contributers","outputs":[{"internalType":"bool","name":"","type":"bool"}],"stateMutability":"view","type":"function"},{"inputs":[],"name":"contributersCount","outputs":[{"internalType":"uint256","name":"","type":"uint256"}],"stateMutability":"view","type":"function"},{"inputs":[{"internalType":"string","name":"description","type":"string"},{"internalType":"uint256","name":"moneyRequired","type":"uint256"},{"internalType":"address","name":"recepient","type":"address"}],"name":"createRequest","outputs":[],"stateMutability":"nonpayable","type":"function"},{"inputs":[{"internalType":"uint256","name":"requestIndex","type":"uint256"}],"name":"finalizeRequest","outputs":[],"stateMutability":"nonpayable","type":"function"},{"inputs":[],"name":"getRequestsCount","outputs":[{"internalType":"uint256","name":"","type":"uint256"}],"stateMutability":"view","type":"function"},{"inputs":[],"name":"manager","outputs":[{"internalType":"address","name":"","type":"address"}],"stateMutability":"view","type":"function"},{"inputs":[],"name":"minimunContribution","outputs":[{"internalType":"uint256","name":"","type":"uint256"}],"stateMutability":"view","type":"function"}],"devdoc":{"kind":"dev","methods":{},"version":1},"evm":{"assembly":"    /* \"Campaign.sol\":411:3262  contract Campaign{... */\n  mstore(0x40, 0x80)\n    /* \"Campaign.sol\":885:1033  constructor(uint minimun, address contractManager){... */\n  callvalue\n  dup1\n  iszero\n  tag_1\n  jumpi\n  0x00\n  dup1\n  revert\ntag_1:\n  pop\n  mload(0x40)\n  sub(codesize, bytecodeSize)\n  dup1\n  bytecodeSize\n  dup4\n  codecopy\n  dup2\n  dup2\n  add\n  0x40\n  mstore\n  dup2\n  add\n  swap1\n  tag_2\n  swap2\n  swap1\n  tag_3\n  jump\t// in\ntag_2:\n    /* \"Campaign.sol\":951:966  contractManager */\n  dup1\n    /* \"Campaign.sol\":941:948  manager */\n  0x01\n  0x00\n    /* \"Campaign.sol\":941:966  manager = contractManager */\n  0x0100\n  exp\n  dup2\n  sload\n  dup2\n  0xffffffffffffffffffffffffffffffffffffffff\n  mul\n  not\n  and\n  swap1\n  dup4\n  0xffffffffffffffffffffffffffffffffffffffff\n  and\n  mul\n  or\n  swap1\n  sstore\n  pop\n    /* \"Campaign.sol\":994:1001  minimun */\n  dup2\n    /* \"Campaign.sol\":972:991  minimunContribution */\n  0x02\n    /* \"Campaign.sol\":972:1001  minimunContribution = minimun */\n  dup2\n  swap1\n  sstore\n  pop\n    /* \"Campaign.sol\":1027:1028  0 */\n  0x00\n    /* \"Campaign.sol\":1007:1024  contributersCount */\n  0x03\n    /* \"Campaign.sol\":1007:1028  contributersCount = 0 */\n  dup2\n  swap1\n  sstore\n  pop\n    /* \"Campaign.sol\":885:1033  constructor(uint minimun, address contractManager){... */\n  pop\n  pop\n    /* \"Campaign.sol\":411:3262  contract Campaign{... */\n  jump(tag_6)\n    /* \"#utility.yul\":88:205   */\ntag_8:\n    /* \"#utility.yul\":197:198   */\n  0x00\n    /* \"#utility.yul\":194:195   */\n  dup1\n    /* \"#utility.yul\":187:199   */\n  revert\n    /* \"#utility.yul\":334:411   */\ntag_10:\n    /* \"#utility.yul\":371:378   */\n  0x00\n    /* \"#utility.yul\":400:405   */\n  dup2\n    /* \"#utility.yul\":389:405   */\n  swap1\n  pop\n    /* \"#utility.yul\":334:411   */\n  swap2\n  swap1\n  pop\n  jump\t// out\n    /* \"#utility.yul\":417:539   */\ntag_11:\n    /* \"#utility.yul\":490:514   */\n  tag_23\n    /* \"#utility.yul\":508:513   */\n  dup2\n    /* \"#utility.yul\":490:514   */\n  tag_10\n  jump\t// in\ntag_23:\n    /* \"#utility.yul\":483:488   */\n  dup2\n    /* \"#utility.yul\":480:515   */\n  eq\n    /* \"#utility.yul\":470:533   */\n  tag_24\n  jumpi\n    /* \"#utility.yul\":529:530   */\n  0x00\n    /* \"#utility.yul\":526:527   */\n  dup1\n    /* \"#utility.yul\":519:531   */\n  revert\n    /* \"#utility.yul\":470:533   */\ntag_24:\n    /* \"#utility.yul\":417:539   */\n  pop\n  jump\t// out\n    /* \"#utility.yul\":545:688   */\ntag_12:\n    /* \"#utility.yul\":602:607   */\n  0x00\n    /* \"#utility.yul\":633:639   */\n  dup2\n    /* \"#utility.yul\":627:640   */\n  mload\n    /* \"#utility.yul\":618:640   */\n  swap1\n  pop\n    /* \"#utility.yul\":649:682   */\n  tag_26\n    /* \"#utility.yul\":676:681   */\n  dup2\n    /* \"#utility.yul\":649:682   */\n  tag_11\n  jump\t// in\ntag_26:\n    /* \"#utility.yul\":545:688   */\n  swap3\n  swap2\n  pop\n  pop\n  jump\t// out\n    /* \"#utility.yul\":694:820   */\ntag_13:\n    /* \"#utility.yul\":731:738   */\n  0x00\n    /* \"#utility.yul\":771:813   */\n  0xffffffffffffffffffffffffffffffffffffffff\n    /* \"#utility.yul\":764:769   */\n  dup3\n    /* \"#utility.yul\":760:814   */\n  and\n    /* \"#utility.yul\":749:814   */\n  swap1\n  pop\n    /* \"#utility.yul\":694:820   */\n  swap2\n  swap1\n  pop\n  jump\t// out\n    /* \"#utility.yul\":826:922   */\ntag_14:\n    /* \"#utility.yul\":863:870   */\n  0x00\n    /* \"#utility.yul\":892:916   */\n  tag_29\n    /* \"#utility.yul\":910:915   */\n  dup3\n    /* \"#utility.yul\":892:916   */\n  tag_13\n  jump\t// in\ntag_29:\n    /* \"#utility.yul\":881:916   */\n  swap1\n  pop\n    /* \"#utility.yul\":826:922   */\n  swap2\n  swap1\n  pop\n  jump\t// out\n    /* \"#utility.yul\":928:1050   */\ntag_15:\n    /* \"#utility.yul\":1001:1025   */\n  tag_31\n    /* \"#utility.yul\":1019:1024   */\n  dup2\n    /* \"#utility.yul\":1001:1025   */\n  tag_14\n  jump\t// in\ntag_31:\n    /* \"#utility.yul\":994:999   */\n  dup2\n    /* \"#utility.yul\":991:1026   */\n  eq\n    /* \"#utility.yul\":981:1044   */\n  tag_32\n  jumpi\n    /* \"#utility.yul\":1040:1041   */\n  0x00\n    /* \"#utility.yul\":1037:1038   */\n  dup1\n    /* \"#utility.yul\":1030:1042   */\n  revert\n    /* \"#utility.yul\":981:1044   */\ntag_32:\n    /* \"#utility.yul\":928:1050   */\n  pop\n  jump\t// out\n    /* \"#utility.yul\":1056:1199   */\ntag_16:\n    /* \"#utility.yul\":1113:1118   */\n  0x00\n    /* \"#utility.yul\":1144:1150   */\n  dup2\n    /* \"#utility.yul\":1138:1151   */\n  mload\n    /* \"#utility.yul\":1129:1151   */\n  swap1\n  pop\n    /* \"#utility.yul\":1160:1193   */\n  tag_34\n    /* \"#utility.yul\":1187:1192   */\n  dup2\n    /* \"#utility.yul\":1160:1193   */\n  tag_15\n  jump\t// in\ntag_34:\n    /* \"#utility.yul\":1056:1199   */\n  swap3\n  swap2\n  pop\n  pop\n  jump\t// out\n    /* \"#utility.yul\":1205:1712   */\ntag_3:\n    /* \"#utility.yul\":1284:1290   */\n  0x00\n    /* \"#utility.yul\":1292:1298   */\n  dup1\n    /* \"#utility.yul\":1341:1343   */\n  0x40\n    /* \"#utility.yul\":1329:1338   */\n  dup4\n    /* \"#utility.yul\":1320:1327   */\n  dup6\n    /* \"#utility.yul\":1316:1339   */\n  sub\n    /* \"#utility.yul\":1312:1344   */\n  slt\n    /* \"#utility.yul\":1309:1428   */\n  iszero\n  tag_36\n  jumpi\n    /* \"#utility.yul\":1347:1426   */\n  tag_37\n  tag_8\n  jump\t// in\ntag_37:\n    /* \"#utility.yul\":1309:1428   */\ntag_36:\n    /* \"#utility.yul\":1467:1468   */\n  0x00\n    /* \"#utility.yul\":1492:1556   */\n  tag_38\n    /* \"#utility.yul\":1548:1555   */\n  dup6\n    /* \"#utility.yul\":1539:1545   */\n  dup3\n    /* \"#utility.yul\":1528:1537   */\n  dup7\n    /* \"#utility.yul\":1524:1546   */\n  add\n    /* \"#utility.yul\":1492:1556   */\n  tag_12\n  jump\t// in\ntag_38:\n    /* \"#utility.yul\":1482:1556   */\n  swap3\n  pop\n    /* \"#utility.yul\":1438:1566   */\n  pop\n    /* \"#utility.yul\":1605:1607   */\n  0x20\n    /* \"#utility.yul\":1631:1695   */\n  tag_39\n    /* \"#utility.yul\":1687:1694   */\n  dup6\n    /* \"#utility.yul\":1678:1684   */\n  dup3\n    /* \"#utility.yul\":1667:1676   */\n  dup7\n    /* \"#utility.yul\":1663:1685   */\n  add\n    /* \"#utility.yul\":1631:1695   */\n  tag_16\n  jump\t// in\ntag_39:\n    /* \"#utility.yul\":1621:1695   */\n  swap2\n  pop\n    /* \"#utility.yul\":1576:1705   */\n  pop\n    /* \"#utility.yul\":1205:1712   */\n  swap3\n  pop\n  swap3\n  swap1\n  pop\n  jump\t// out\n    /* \"Campaign.sol\":411:3262  contract Campaign{... */\ntag_6:\n  dataSize(sub_0)\n  dup1\n  dataOffset(sub_0)\n  0x00\n  codecopy\n  0x00\n  return\nstop\n\nsub_0: assembly {\n        /* \"Campaign.sol\":411:3262  contract Campaign{... */\n      mstore(0x40, 0x80)\n      jumpi(tag_1, lt(calldatasize, 0x04))\n      shr(0xe0, calldataload(0x00))\n      dup1\n      0x754d4ca4\n      gt\n      tag_13\n      jumpi\n      dup1\n      0x754d4ca4\n      eq\n      tag_7\n      jumpi\n      dup1\n      0x8a9cfd55\n      eq\n      tag_8\n      jumpi\n      dup1\n      0xa7f33715\n      eq\n      tag_9\n      jumpi\n      dup1\n      0xb64bdf93\n      eq\n      tag_10\n      jumpi\n      dup1\n      0xd7d1bbdb\n      eq\n      tag_11\n      jumpi\n      dup1\n      0xe9f146a3\n      eq\n      tag_12\n      jumpi\n      jump(tag_1)\n    tag_13:\n      dup1\n      0x03441006\n      eq\n      tag_2\n      jumpi\n      dup1\n      0x3410452a\n      eq\n      tag_3\n      jumpi\n      dup1\n      0x34b66460\n      eq\n      tag_4\n      jumpi\n      dup1\n      0x481c6a75\n      eq\n      tag_5\n      jumpi\n      dup1\n      0x6d1e0903\n      eq\n      tag_6\n      jumpi\n    tag_1:\n      0x00\n      dup1\n      revert\n        /* \"Campaign.sol\":2623:2928  function finalizeRequest(uint requestIndex) public restricted{... */\n    tag_2:\n      callvalue\n      dup1\n      iszero\n      tag_14\n      jumpi\n      0x00\n      dup1\n      revert\n    tag_14:\n      pop\n      tag_15\n      0x04\n      dup1\n      calldatasize\n      sub\n      dup2\n      add\n      swap1\n      tag_16\n      swap2\n      swap1\n      tag_17\n      jump\t// in\n    tag_16:\n      tag_18\n      jump\t// in\n    tag_15:\n      stop\n        /* \"Campaign.sol\":3162:3257  function getRequestsCount() public view returns (uint) {... */\n    tag_3:\n      callvalue\n      dup1\n      iszero\n      tag_19\n      jumpi\n      0x00\n      dup1\n      revert\n    tag_19:\n      pop\n      tag_20\n      tag_21\n      jump\t// in\n    tag_20:\n      mload(0x40)\n      tag_22\n      swap2\n      swap1\n      tag_23\n      jump\t// in\n    tag_22:\n      mload(0x40)\n      dup1\n      swap2\n      sub\n      swap1\n      return\n        /* \"Campaign.sol\":751:795  mapping(address => bool) public contributers */\n    tag_4:\n      callvalue\n      dup1\n      iszero\n      tag_24\n      jumpi\n      0x00\n      dup1\n      revert\n    tag_24:\n      pop\n      tag_25\n      0x04\n      dup1\n      calldatasize\n      sub\n      dup2\n      add\n      swap1\n      tag_26\n      swap2\n      swap1\n      tag_27\n      jump\t// in\n    tag_26:\n      tag_28\n      jump\t// in\n    tag_25:\n      mload(0x40)\n      tag_29\n      swap2\n      swap1\n      tag_30\n      jump\t// in\n    tag_29:\n      mload(0x40)\n      dup1\n      swap2\n      sub\n      swap1\n      return\n        /* \"Campaign.sol\":657:679  address public manager */\n    tag_5:\n      callvalue\n      dup1\n      iszero\n      tag_31\n      jumpi\n      0x00\n      dup1\n      revert\n    tag_31:\n      pop\n      tag_32\n      tag_33\n      jump\t// in\n    tag_32:\n      mload(0x40)\n      tag_34\n      swap2\n      swap1\n      tag_35\n      jump\t// in\n    tag_34:\n      mload(0x40)\n      dup1\n      swap2\n      sub\n      swap1\n      return\n        /* \"Campaign.sol\":2932:3158  function contarctSummary() public view returns (uint,uint,uint,uint,address){... */\n    tag_6:\n      callvalue\n      dup1\n      iszero\n      tag_36\n      jumpi\n      0x00\n      dup1\n      revert\n    tag_36:\n      pop\n      tag_37\n      tag_38\n      jump\t// in\n    tag_37:\n      mload(0x40)\n      tag_39\n      swap6\n      swap5\n      swap4\n      swap3\n      swap2\n      swap1\n      tag_40\n      jump\t// in\n    tag_39:\n      mload(0x40)\n      dup1\n      swap2\n      sub\n      swap1\n      return\n        /* \"Campaign.sol\":621:653  Request[] public campaignRequest */\n    tag_7:\n      callvalue\n      dup1\n      iszero\n      tag_41\n      jumpi\n      0x00\n      dup1\n      revert\n    tag_41:\n      pop\n      tag_42\n      0x04\n      dup1\n      calldatasize\n      sub\n      dup2\n      add\n      swap1\n      tag_43\n      swap2\n      swap1\n      tag_17\n      jump\t// in\n    tag_43:\n      tag_44\n      jump\t// in\n    tag_42:\n      mload(0x40)\n      tag_45\n      swap6\n      swap5\n      swap4\n      swap3\n      swap2\n      swap1\n      tag_46\n      jump\t// in\n    tag_45:\n      mload(0x40)\n      dup1\n      swap2\n      sub\n      swap1\n      return\n        /* \"Campaign.sol\":1441:2182  function createRequest(string memory description, uint moneyRequired, address recepient) public restricted{... */\n    tag_8:\n      callvalue\n      dup1\n      iszero\n      tag_47\n      jumpi\n      0x00\n      dup1\n      revert\n    tag_47:\n      pop\n      tag_48\n      0x04\n      dup1\n      calldatasize\n      sub\n      dup2\n      add\n      swap1\n      tag_49\n      swap2\n      swap1\n      tag_50\n      jump\t// in\n    tag_49:\n      tag_51\n      jump\t// in\n    tag_48:\n      stop\n        /* \"Campaign.sol\":683:714  uint public minimunContribution */\n    tag_9:\n      callvalue\n      dup1\n      iszero\n      tag_52\n      jumpi\n      0x00\n      dup1\n      revert\n    tag_52:\n      pop\n      tag_53\n      tag_54\n      jump\t// in\n    tag_53:\n      mload(0x40)\n      tag_55\n      swap2\n      swap1\n      tag_23\n      jump\t// in\n    tag_55:\n      mload(0x40)\n      dup1\n      swap2\n      sub\n      swap1\n      return\n        /* \"Campaign.sol\":1221:1376  function addContributers() public payable{... */\n    tag_10:\n      tag_56\n      tag_57\n      jump\t// in\n    tag_56:\n      stop\n        /* \"Campaign.sol\":2272:2531  function approveRequest(uint requestId) public{... */\n    tag_11:\n      callvalue\n      dup1\n      iszero\n      tag_58\n      jumpi\n      0x00\n      dup1\n      revert\n    tag_58:\n      pop\n      tag_59\n      0x04\n      dup1\n      calldatasize\n      sub\n      dup2\n      add\n      swap1\n      tag_60\n      swap2\n      swap1\n      tag_17\n      jump\t// in\n    tag_60:\n      tag_61\n      jump\t// in\n    tag_59:\n      stop\n        /* \"Campaign.sol\":718:747  uint public contributersCount */\n    tag_12:\n      callvalue\n      dup1\n      iszero\n      tag_62\n      jumpi\n      0x00\n      dup1\n      revert\n    tag_62:\n      pop\n      tag_63\n      tag_64\n      jump\t// in\n    tag_63:\n      mload(0x40)\n      tag_65\n      swap2\n      swap1\n      tag_23\n      jump\t// in\n    tag_65:\n      mload(0x40)\n      dup1\n      swap2\n      sub\n      swap1\n      return\n        /* \"Campaign.sol\":2623:2928  function finalizeRequest(uint requestIndex) public restricted{... */\n    tag_18:\n        /* \"Campaign.sol\":1148:1155  manager */\n      0x01\n      0x00\n      swap1\n      sload\n      swap1\n      0x0100\n      exp\n      swap1\n      div\n      0xffffffffffffffffffffffffffffffffffffffff\n      and\n        /* \"Campaign.sol\":1134:1155  msg.sender == manager */\n      0xffffffffffffffffffffffffffffffffffffffff\n      and\n        /* \"Campaign.sol\":1134:1144  msg.sender */\n      caller\n        /* \"Campaign.sol\":1134:1155  msg.sender == manager */\n      0xffffffffffffffffffffffffffffffffffffffff\n      and\n      eq\n        /* \"Campaign.sol\":1126:1156  require(msg.sender == manager) */\n      tag_67\n      jumpi\n      0x00\n      dup1\n      revert\n    tag_67:\n        /* \"Campaign.sol\":2690:2713  Request storage request */\n      0x00\n        /* \"Campaign.sol\":2716:2731  campaignRequest */\n      dup1\n        /* \"Campaign.sol\":2732:2744  requestIndex */\n      dup3\n        /* \"Campaign.sol\":2716:2745  campaignRequest[requestIndex] */\n      dup2\n      sload\n      dup2\n      lt\n      tag_69\n      jumpi\n      tag_70\n      tag_71\n      jump\t// in\n    tag_70:\n    tag_69:\n      swap1\n      0x00\n      mstore\n      keccak256(0x00, 0x20)\n      swap1\n      0x05\n      mul\n      add\n        /* \"Campaign.sol\":2690:2745  Request storage request = campaignRequest[requestIndex] */\n      swap1\n      pop\n        /* \"Campaign.sol\":2804:2805  2 */\n      0x02\n        /* \"Campaign.sol\":2786:2803  contributersCount */\n      sload(0x03)\n        /* \"Campaign.sol\":2786:2805  contributersCount/2 */\n      tag_73\n      swap2\n      swap1\n      tag_74\n      jump\t// in\n    tag_73:\n        /* \"Campaign.sol\":2760:2767  request */\n      dup2\n        /* \"Campaign.sol\":2760:2782  request.approversCount */\n      0x03\n      add\n      sload\n        /* \"Campaign.sol\":2760:2806  request.approversCount > (contributersCount/2) */\n      gt\n        /* \"Campaign.sol\":2760:2830  request.approversCount > (contributersCount/2) && !request.isCompleted */\n      dup1\n      iszero\n      tag_75\n      jumpi\n      pop\n        /* \"Campaign.sol\":2811:2818  request */\n      dup1\n        /* \"Campaign.sol\":2811:2830  request.isCompleted */\n      0x02\n      add\n      0x14\n      swap1\n      sload\n      swap1\n      0x0100\n      exp\n      swap1\n      div\n      0xff\n      and\n        /* \"Campaign.sol\":2810:2830  !request.isCompleted */\n      iszero\n        /* \"Campaign.sol\":2760:2830  request.approversCount > (contributersCount/2) && !request.isCompleted */\n    tag_75:\n        /* \"Campaign.sol\":2752:2831  require(request.approversCount > (contributersCount/2) && !request.isCompleted) */\n      tag_76\n      jumpi\n      0x00\n      dup1\n      revert\n    tag_76:\n        /* \"Campaign.sol\":2838:2845  request */\n      dup1\n        /* \"Campaign.sol\":2838:2855  request.recepient */\n      0x02\n      add\n      0x00\n      swap1\n      sload\n      swap1\n      0x0100\n      exp\n      swap1\n      div\n      0xffffffffffffffffffffffffffffffffffffffff\n      and\n        /* \"Campaign.sol\":2838:2864  request.recepient.transfer */\n      0xffffffffffffffffffffffffffffffffffffffff\n      and\n        /* \"Campaign.sol\":2838:2887  request.recepient.transfer(request.moneyRequired) */\n      0x08fc\n        /* \"Campaign.sol\":2865:2872  request */\n      dup3\n        /* \"Campaign.sol\":2865:2886  request.moneyRequired */\n      0x01\n      add\n      sload\n        /* \"Campaign.sol\":2838:2887  request.recepient.transfer(request.moneyRequired) */\n      swap1\n      dup2\n      iszero\n      mul\n      swap1\n      mload(0x40)\n      0x00\n      mload(0x40)\n      dup1\n      dup4\n      sub\n      dup2\n      dup6\n      dup9\n      dup9\n      call\n      swap4\n      pop\n      pop\n      pop\n      pop\n      iszero\n      dup1\n      iszero\n      tag_78\n      jumpi\n      returndatasize\n      0x00\n      dup1\n      returndatacopy\n      revert(0x00, returndatasize)\n    tag_78:\n      pop\n        /* \"Campaign.sol\":2915:2919  true */\n      0x01\n        /* \"Campaign.sol\":2893:2900  request */\n      dup2\n        /* \"Campaign.sol\":2893:2912  request.isCompleted */\n      0x02\n      add\n      0x14\n        /* \"Campaign.sol\":2893:2919  request.isCompleted = true */\n      0x0100\n      exp\n      dup2\n      sload\n      dup2\n      0xff\n      mul\n      not\n      and\n      swap1\n      dup4\n      iszero\n      iszero\n      mul\n      or\n      swap1\n      sstore\n      pop\n        /* \"Campaign.sol\":2684:2928  {... */\n      pop\n        /* \"Campaign.sol\":2623:2928  function finalizeRequest(uint requestIndex) public restricted{... */\n      pop\n      jump\t// out\n        /* \"Campaign.sol\":3162:3257  function getRequestsCount() public view returns (uint) {... */\n    tag_21:\n        /* \"Campaign.sol\":3211:3215  uint */\n      0x00\n        /* \"Campaign.sol\":3230:3245  campaignRequest */\n      dup1\n        /* \"Campaign.sol\":3230:3252  campaignRequest.length */\n      dup1\n      sload\n      swap1\n      pop\n        /* \"Campaign.sol\":3223:3252  return campaignRequest.length */\n      swap1\n      pop\n        /* \"Campaign.sol\":3162:3257  function getRequestsCount() public view returns (uint) {... */\n      swap1\n      jump\t// out\n        /* \"Campaign.sol\":751:795  mapping(address => bool) public contributers */\n    tag_28:\n      mstore(0x20, 0x04)\n      dup1\n      0x00\n      mstore\n      keccak256(0x00, 0x40)\n      0x00\n      swap2\n      pop\n      sload\n      swap1\n      0x0100\n      exp\n      swap1\n      div\n      0xff\n      and\n      dup2\n      jump\t// out\n        /* \"Campaign.sol\":657:679  address public manager */\n    tag_33:\n      0x01\n      0x00\n      swap1\n      sload\n      swap1\n      0x0100\n      exp\n      swap1\n      div\n      0xffffffffffffffffffffffffffffffffffffffff\n      and\n      dup2\n      jump\t// out\n        /* \"Campaign.sol\":2932:3158  function contarctSummary() public view returns (uint,uint,uint,uint,address){... */\n    tag_38:\n        /* \"Campaign.sol\":2980:2984  uint */\n      0x00\n        /* \"Campaign.sol\":2985:2989  uint */\n      dup1\n        /* \"Campaign.sol\":2990:2994  uint */\n      0x00\n        /* \"Campaign.sol\":2995:2999  uint */\n      dup1\n        /* \"Campaign.sol\":3000:3007  address */\n      0x00\n        /* \"Campaign.sol\":3029:3048  minimunContribution */\n      sload(0x02)\n        /* \"Campaign.sol\":3056:3077  address(this).balance */\n      selfbalance\n        /* \"Campaign.sol\":3085:3100  campaignRequest */\n      0x00\n        /* \"Campaign.sol\":3085:3107  campaignRequest.length */\n      dup1\n      sload\n      swap1\n      pop\n        /* \"Campaign.sol\":3115:3132  contributersCount */\n      sload(0x03)\n        /* \"Campaign.sol\":3140:3147  manager */\n      0x01\n      0x00\n      swap1\n      sload\n      swap1\n      0x0100\n      exp\n      swap1\n      div\n      0xffffffffffffffffffffffffffffffffffffffff\n      and\n        /* \"Campaign.sol\":3014:3153  return (... */\n      swap5\n      pop\n      swap5\n      pop\n      swap5\n      pop\n      swap5\n      pop\n      swap5\n      pop\n        /* \"Campaign.sol\":2932:3158  function contarctSummary() public view returns (uint,uint,uint,uint,address){... */\n      swap1\n      swap2\n      swap3\n      swap4\n      swap5\n      jump\t// out\n        /* \"Campaign.sol\":621:653  Request[] public campaignRequest */\n    tag_44:\n      0x00\n      dup2\n      dup2\n      sload\n      dup2\n      lt\n      tag_81\n      jumpi\n      0x00\n      dup1\n      revert\n    tag_81:\n      swap1\n      0x00\n      mstore\n      keccak256(0x00, 0x20)\n      swap1\n      0x05\n      mul\n      add\n      0x00\n      swap2\n      pop\n      swap1\n      pop\n      dup1\n      0x00\n      add\n      dup1\n      sload\n      tag_83\n      swap1\n      tag_84\n      jump\t// in\n    tag_83:\n      dup1\n      0x1f\n      add\n      0x20\n      dup1\n      swap2\n      div\n      mul\n      0x20\n      add\n      mload(0x40)\n      swap1\n      dup2\n      add\n      0x40\n      mstore\n      dup1\n      swap3\n      swap2\n      swap1\n      dup2\n      dup2\n      mstore\n      0x20\n      add\n      dup3\n      dup1\n      sload\n      tag_85\n      swap1\n      tag_84\n      jump\t// in\n    tag_85:\n      dup1\n      iszero\n      tag_86\n      jumpi\n      dup1\n      0x1f\n      lt\n      tag_87\n      jumpi\n      0x0100\n      dup1\n      dup4\n      sload\n      div\n      mul\n      dup4\n      mstore\n      swap2\n      0x20\n      add\n      swap2\n      jump(tag_86)\n    tag_87:\n      dup3\n      add\n      swap2\n      swap1\n      0x00\n      mstore\n      keccak256(0x00, 0x20)\n      swap1\n    tag_88:\n      dup2\n      sload\n      dup2\n      mstore\n      swap1\n      0x01\n      add\n      swap1\n      0x20\n      add\n      dup1\n      dup4\n      gt\n      tag_88\n      jumpi\n      dup3\n      swap1\n      sub\n      0x1f\n      and\n      dup3\n      add\n      swap2\n    tag_86:\n      pop\n      pop\n      pop\n      pop\n      pop\n      swap1\n      dup1\n      0x01\n      add\n      sload\n      swap1\n      dup1\n      0x02\n      add\n      0x00\n      swap1\n      sload\n      swap1\n      0x0100\n      exp\n      swap1\n      div\n      0xffffffffffffffffffffffffffffffffffffffff\n      and\n      swap1\n      dup1\n      0x02\n      add\n      0x14\n      swap1\n      sload\n      swap1\n      0x0100\n      exp\n      swap1\n      div\n      0xff\n      and\n      swap1\n      dup1\n      0x03\n      add\n      sload\n      swap1\n      pop\n      dup6\n      jump\t// out\n        /* \"Campaign.sol\":1441:2182  function createRequest(string memory description, uint moneyRequired, address recepient) public restricted{... */\n    tag_51:\n        /* \"Campaign.sol\":1148:1155  manager */\n      0x01\n      0x00\n      swap1\n      sload\n      swap1\n      0x0100\n      exp\n      swap1\n      div\n      0xffffffffffffffffffffffffffffffffffffffff\n      and\n        /* \"Campaign.sol\":1134:1155  msg.sender == manager */\n      0xffffffffffffffffffffffffffffffffffffffff\n      and\n        /* \"Campaign.sol\":1134:1144  msg.sender */\n      caller\n        /* \"Campaign.sol\":1134:1155  msg.sender == manager */\n      0xffffffffffffffffffffffffffffffffffffffff\n      and\n      eq\n        /* \"Campaign.sol\":1126:1156  require(msg.sender == manager) */\n      tag_90\n      jumpi\n      0x00\n      dup1\n      revert\n    tag_90:\n        /* \"Campaign.sol\":1920:1946  Request storage newRequest */\n      0x00\n        /* \"Campaign.sol\":1949:1964  campaignRequest */\n      dup1\n        /* \"Campaign.sol\":1949:1971  campaignRequest.push() */\n      0x01\n      dup2\n      0x01\n      dup2\n      sload\n      add\n      dup1\n      dup3\n      sstore\n      dup1\n      swap2\n      pop\n      pop\n      sub\n      swap1\n      0x00\n      mstore\n      keccak256(0x00, 0x20)\n      swap1\n      0x05\n      mul\n      add\n        /* \"Campaign.sol\":1920:1971  Request storage newRequest = campaignRequest.push() */\n      swap1\n      pop\n        /* \"Campaign.sol\":2002:2013  description */\n      dup4\n        /* \"Campaign.sol\":1977:1987  newRequest */\n      dup2\n        /* \"Campaign.sol\":1977:1999  newRequest.description */\n      0x00\n      add\n        /* \"Campaign.sol\":1977:2013  newRequest.description = description */\n      swap1\n      dup2\n      tag_93\n      swap2\n      swap1\n      tag_94\n      jump\t// in\n    tag_93:\n      pop\n        /* \"Campaign.sol\":2046:2059  moneyRequired */\n      dup3\n        /* \"Campaign.sol\":2019:2029  newRequest */\n      dup2\n        /* \"Campaign.sol\":2019:2043  newRequest.moneyRequired */\n      0x01\n      add\n        /* \"Campaign.sol\":2019:2059  newRequest.moneyRequired = moneyRequired */\n      dup2\n      swap1\n      sstore\n      pop\n        /* \"Campaign.sol\":2096:2105  recepient */\n      dup2\n        /* \"Campaign.sol\":2065:2075  newRequest */\n      dup2\n        /* \"Campaign.sol\":2065:2085  newRequest.recepient */\n      0x02\n      add\n      0x00\n        /* \"Campaign.sol\":2065:2106  newRequest.recepient = payable(recepient) */\n      0x0100\n      exp\n      dup2\n      sload\n      dup2\n      0xffffffffffffffffffffffffffffffffffffffff\n      mul\n      not\n      and\n      swap1\n      dup4\n      0xffffffffffffffffffffffffffffffffffffffff\n      and\n      mul\n      or\n      swap1\n      sstore\n      pop\n        /* \"Campaign.sol\":2137:2142  false */\n      0x00\n        /* \"Campaign.sol\":2112:2122  newRequest */\n      dup2\n        /* \"Campaign.sol\":2112:2134  newRequest.isCompleted */\n      0x02\n      add\n      0x14\n        /* \"Campaign.sol\":2112:2142  newRequest.isCompleted = false */\n      0x0100\n      exp\n      dup2\n      sload\n      dup2\n      0xff\n      mul\n      not\n      and\n      swap1\n      dup4\n      iszero\n      iszero\n      mul\n      or\n      swap1\n      sstore\n      pop\n        /* \"Campaign.sol\":2176:2177  0 */\n      0x00\n        /* \"Campaign.sol\":2148:2158  newRequest */\n      dup2\n        /* \"Campaign.sol\":2148:2173  newRequest.approversCount */\n      0x03\n      add\n        /* \"Campaign.sol\":2148:2177  newRequest.approversCount = 0 */\n      dup2\n      swap1\n      sstore\n      pop\n        /* \"Campaign.sol\":1547:2182  {... */\n      pop\n        /* \"Campaign.sol\":1441:2182  function createRequest(string memory description, uint moneyRequired, address recepient) public restricted{... */\n      pop\n      pop\n      pop\n      jump\t// out\n        /* \"Campaign.sol\":683:714  uint public minimunContribution */\n    tag_54:\n      sload(0x02)\n      dup2\n      jump\t// out\n        /* \"Campaign.sol\":1221:1376  function addContributers() public payable{... */\n    tag_57:\n        /* \"Campaign.sol\":1288:1307  minimunContribution */\n      sload(0x02)\n        /* \"Campaign.sol\":1276:1285  msg.value */\n      callvalue\n        /* \"Campaign.sol\":1276:1307  msg.value > minimunContribution */\n      gt\n        /* \"Campaign.sol\":1268:1308  require(msg.value > minimunContribution) */\n      tag_96\n      jumpi\n      0x00\n      dup1\n      revert\n    tag_96:\n        /* \"Campaign.sol\":1342:1346  true */\n      0x01\n        /* \"Campaign.sol\":1315:1327  contributers */\n      0x04\n        /* \"Campaign.sol\":1315:1339  contributers[msg.sender] */\n      0x00\n        /* \"Campaign.sol\":1328:1338  msg.sender */\n      caller\n        /* \"Campaign.sol\":1315:1339  contributers[msg.sender] */\n      0xffffffffffffffffffffffffffffffffffffffff\n      and\n      0xffffffffffffffffffffffffffffffffffffffff\n      and\n      dup2\n      mstore\n      0x20\n      add\n      swap1\n      dup2\n      mstore\n      0x20\n      add\n      0x00\n      keccak256\n      0x00\n        /* \"Campaign.sol\":1315:1346  contributers[msg.sender] = true */\n      0x0100\n      exp\n      dup2\n      sload\n      dup2\n      0xff\n      mul\n      not\n      and\n      swap1\n      dup4\n      iszero\n      iszero\n      mul\n      or\n      swap1\n      sstore\n      pop\n        /* \"Campaign.sol\":1352:1369  contributersCount */\n      0x03\n      0x00\n        /* \"Campaign.sol\":1352:1371  contributersCount++ */\n      dup2\n      sload\n      dup1\n      swap3\n      swap2\n      swap1\n      tag_97\n      swap1\n      tag_98\n      jump\t// in\n    tag_97:\n      swap2\n      swap1\n      pop\n      sstore\n      pop\n        /* \"Campaign.sol\":1221:1376  function addContributers() public payable{... */\n      jump\t// out\n        /* \"Campaign.sol\":2272:2531  function approveRequest(uint requestId) public{... */\n    tag_61:\n        /* \"Campaign.sol\":2324:2347  Request storage request */\n      0x00\n        /* \"Campaign.sol\":2350:2365  campaignRequest */\n      dup1\n        /* \"Campaign.sol\":2366:2375  requestId */\n      dup3\n        /* \"Campaign.sol\":2350:2376  campaignRequest[requestId] */\n      dup2\n      sload\n      dup2\n      lt\n      tag_100\n      jumpi\n      tag_101\n      tag_71\n      jump\t// in\n    tag_101:\n    tag_100:\n      swap1\n      0x00\n      mstore\n      keccak256(0x00, 0x20)\n      swap1\n      0x05\n      mul\n      add\n        /* \"Campaign.sol\":2324:2376  Request storage request = campaignRequest[requestId] */\n      swap1\n      pop\n        /* \"Campaign.sol\":2391:2403  contributers */\n      0x04\n        /* \"Campaign.sol\":2391:2415  contributers[msg.sender] */\n      0x00\n        /* \"Campaign.sol\":2404:2414  msg.sender */\n      caller\n        /* \"Campaign.sol\":2391:2415  contributers[msg.sender] */\n      0xffffffffffffffffffffffffffffffffffffffff\n      and\n      0xffffffffffffffffffffffffffffffffffffffff\n      and\n      dup2\n      mstore\n      0x20\n      add\n      swap1\n      dup2\n      mstore\n      0x20\n      add\n      0x00\n      keccak256\n      0x00\n      swap1\n      sload\n      swap1\n      0x0100\n      exp\n      swap1\n      div\n      0xff\n      and\n        /* \"Campaign.sol\":2391:2449  contributers[msg.sender] && !request.approvers[msg.sender] */\n      dup1\n      iszero\n      tag_103\n      jumpi\n      pop\n        /* \"Campaign.sol\":2420:2427  request */\n      dup1\n        /* \"Campaign.sol\":2420:2437  request.approvers */\n      0x04\n      add\n        /* \"Campaign.sol\":2420:2449  request.approvers[msg.sender] */\n      0x00\n        /* \"Campaign.sol\":2438:2448  msg.sender */\n      caller\n        /* \"Campaign.sol\":2420:2449  request.approvers[msg.sender] */\n      0xffffffffffffffffffffffffffffffffffffffff\n      and\n      0xffffffffffffffffffffffffffffffffffffffff\n      and\n      dup2\n      mstore\n      0x20\n      add\n      swap1\n      dup2\n      mstore\n      0x20\n      add\n      0x00\n      keccak256\n      0x00\n      swap1\n      sload\n      swap1\n      0x0100\n      exp\n      swap1\n      div\n      0xff\n      and\n        /* \"Campaign.sol\":2419:2449  !request.approvers[msg.sender] */\n      iszero\n        /* \"Campaign.sol\":2391:2449  contributers[msg.sender] && !request.approvers[msg.sender] */\n    tag_103:\n        /* \"Campaign.sol\":2383:2450  require(contributers[msg.sender] && !request.approvers[msg.sender]) */\n      tag_104\n      jumpi\n      0x00\n      dup1\n      revert\n    tag_104:\n        /* \"Campaign.sol\":2491:2495  true */\n      0x01\n        /* \"Campaign.sol\":2459:2466  request */\n      dup2\n        /* \"Campaign.sol\":2459:2476  request.approvers */\n      0x04\n      add\n        /* \"Campaign.sol\":2459:2488  request.approvers[msg.sender] */\n      0x00\n        /* \"Campaign.sol\":2477:2487  msg.sender */\n      caller\n        /* \"Campaign.sol\":2459:2488  request.approvers[msg.sender] */\n      0xffffffffffffffffffffffffffffffffffffffff\n      and\n      0xffffffffffffffffffffffffffffffffffffffff\n      and\n      dup2\n      mstore\n      0x20\n      add\n      swap1\n      dup2\n      mstore\n      0x20\n      add\n      0x00\n      keccak256\n      0x00\n        /* \"Campaign.sol\":2459:2495  request.approvers[msg.sender] = true */\n      0x0100\n      exp\n      dup2\n      sload\n      dup2\n      0xff\n      mul\n      not\n      and\n      swap1\n      dup4\n      iszero\n      iszero\n      mul\n      or\n      swap1\n      sstore\n      pop\n        /* \"Campaign.sol\":2501:2508  request */\n      dup1\n        /* \"Campaign.sol\":2501:2523  request.approversCount */\n      0x03\n      add\n      0x00\n        /* \"Campaign.sol\":2501:2526  request.approversCount ++ */\n      dup2\n      sload\n      dup1\n      swap3\n      swap2\n      swap1\n      tag_105\n      swap1\n      tag_98\n      jump\t// in\n    tag_105:\n      swap2\n      swap1\n      pop\n      sstore\n      pop\n        /* \"Campaign.sol\":2318:2531  {... */\n      pop\n        /* \"Campaign.sol\":2272:2531  function approveRequest(uint requestId) public{... */\n      pop\n      jump\t// out\n        /* \"Campaign.sol\":718:747  uint public contributersCount */\n    tag_64:\n      sload(0x03)\n      dup2\n      jump\t// out\n        /* \"#utility.yul\":7:82   */\n    tag_106:\n        /* \"#utility.yul\":40:46   */\n      0x00\n        /* \"#utility.yul\":73:75   */\n      0x40\n        /* \"#utility.yul\":67:76   */\n      mload\n        /* \"#utility.yul\":57:76   */\n      swap1\n      pop\n        /* \"#utility.yul\":7:82   */\n      swap1\n      jump\t// out\n        /* \"#utility.yul\":88:205   */\n    tag_107:\n        /* \"#utility.yul\":197:198   */\n      0x00\n        /* \"#utility.yul\":194:195   */\n      dup1\n        /* \"#utility.yul\":187:199   */\n      revert\n        /* \"#utility.yul\":211:328   */\n    tag_108:\n        /* \"#utility.yul\":320:321   */\n      0x00\n        /* \"#utility.yul\":317:318   */\n      dup1\n        /* \"#utility.yul\":310:322   */\n      revert\n        /* \"#utility.yul\":334:411   */\n    tag_109:\n        /* \"#utility.yul\":371:378   */\n      0x00\n        /* \"#utility.yul\":400:405   */\n      dup2\n        /* \"#utility.yul\":389:405   */\n      swap1\n      pop\n        /* \"#utility.yul\":334:411   */\n      swap2\n      swap1\n      pop\n      jump\t// out\n        /* \"#utility.yul\":417:539   */\n    tag_110:\n        /* \"#utility.yul\":490:514   */\n      tag_160\n        /* \"#utility.yul\":508:513   */\n      dup2\n        /* \"#utility.yul\":490:514   */\n      tag_109\n      jump\t// in\n    tag_160:\n        /* \"#utility.yul\":483:488   */\n      dup2\n        /* \"#utility.yul\":480:515   */\n      eq\n        /* \"#utility.yul\":470:533   */\n      tag_161\n      jumpi\n        /* \"#utility.yul\":529:530   */\n      0x00\n        /* \"#utility.yul\":526:527   */\n      dup1\n        /* \"#utility.yul\":519:531   */\n      revert\n        /* \"#utility.yul\":470:533   */\n    tag_161:\n        /* \"#utility.yul\":417:539   */\n      pop\n      jump\t// out\n        /* \"#utility.yul\":545:684   */\n    tag_111:\n        /* \"#utility.yul\":591:596   */\n      0x00\n        /* \"#utility.yul\":629:635   */\n      dup2\n        /* \"#utility.yul\":616:636   */\n      calldataload\n        /* \"#utility.yul\":607:636   */\n      swap1\n      pop\n        /* \"#utility.yul\":645:678   */\n      tag_163\n        /* \"#utility.yul\":672:677   */\n      dup2\n        /* \"#utility.yul\":645:678   */\n      tag_110\n      jump\t// in\n    tag_163:\n        /* \"#utility.yul\":545:684   */\n      swap3\n      swap2\n      pop\n      pop\n      jump\t// out\n        /* \"#utility.yul\":690:1019   */\n    tag_17:\n        /* \"#utility.yul\":749:755   */\n      0x00\n        /* \"#utility.yul\":798:800   */\n      0x20\n        /* \"#utility.yul\":786:795   */\n      dup3\n        /* \"#utility.yul\":777:784   */\n      dup5\n        /* \"#utility.yul\":773:796   */\n      sub\n        /* \"#utility.yul\":769:801   */\n      slt\n        /* \"#utility.yul\":766:885   */\n      iszero\n      tag_165\n      jumpi\n        /* \"#utility.yul\":804:883   */\n      tag_166\n      tag_107\n      jump\t// in\n    tag_166:\n        /* \"#utility.yul\":766:885   */\n    tag_165:\n        /* \"#utility.yul\":924:925   */\n      0x00\n        /* \"#utility.yul\":949:1002   */\n      tag_167\n        /* \"#utility.yul\":994:1001   */\n      dup5\n        /* \"#utility.yul\":985:991   */\n      dup3\n        /* \"#utility.yul\":974:983   */\n      dup6\n        /* \"#utility.yul\":970:992   */\n      add\n        /* \"#utility.yul\":949:1002   */\n      tag_111\n      jump\t// in\n    tag_167:\n        /* \"#utility.yul\":939:1002   */\n      swap2\n      pop\n        /* \"#utility.yul\":895:1012   */\n      pop\n        /* \"#utility.yul\":690:1019   */\n      swap3\n      swap2\n      pop\n      pop\n      jump\t// out\n        /* \"#utility.yul\":1025:1143   */\n    tag_112:\n        /* \"#utility.yul\":1112:1136   */\n      tag_169\n        /* \"#utility.yul\":1130:1135   */\n      dup2\n        /* \"#utility.yul\":1112:1136   */\n      tag_109\n      jump\t// in\n    tag_169:\n        /* \"#utility.yul\":1107:1110   */\n      dup3\n        /* \"#utility.yul\":1100:1137   */\n      mstore\n        /* \"#utility.yul\":1025:1143   */\n      pop\n      pop\n      jump\t// out\n        /* \"#utility.yul\":1149:1371   */\n    tag_23:\n        /* \"#utility.yul\":1242:1246   */\n      0x00\n        /* \"#utility.yul\":1280:1282   */\n      0x20\n        /* \"#utility.yul\":1269:1278   */\n      dup3\n        /* \"#utility.yul\":1265:1283   */\n      add\n        /* \"#utility.yul\":1257:1283   */\n      swap1\n      pop\n        /* \"#utility.yul\":1293:1364   */\n      tag_171\n        /* \"#utility.yul\":1361:1362   */\n      0x00\n        /* \"#utility.yul\":1350:1359   */\n      dup4\n        /* \"#utility.yul\":1346:1363   */\n      add\n        /* \"#utility.yul\":1337:1343   */\n      dup5\n        /* \"#utility.yul\":1293:1364   */\n      tag_112\n      jump\t// in\n    tag_171:\n        /* \"#utility.yul\":1149:1371   */\n      swap3\n      swap2\n      pop\n      pop\n      jump\t// out\n        /* \"#utility.yul\":1377:1503   */\n    tag_113:\n        /* \"#utility.yul\":1414:1421   */\n      0x00\n        /* \"#utility.yul\":1454:1496   */\n      0xffffffffffffffffffffffffffffffffffffffff\n        /* \"#utility.yul\":1447:1452   */\n      dup3\n        /* \"#utility.yul\":1443:1497   */\n      and\n        /* \"#utility.yul\":1432:1497   */\n      swap1\n      pop\n        /* \"#utility.yul\":1377:1503   */\n      swap2\n      swap1\n      pop\n      jump\t// out\n        /* \"#utility.yul\":1509:1605   */\n    tag_114:\n        /* \"#utility.yul\":1546:1553   */\n      0x00\n        /* \"#utility.yul\":1575:1599   */\n      tag_174\n        /* \"#utility.yul\":1593:1598   */\n      dup3\n        /* \"#utility.yul\":1575:1599   */\n      tag_113\n      jump\t// in\n    tag_174:\n        /* \"#utility.yul\":1564:1599   */\n      swap1\n      pop\n        /* \"#utility.yul\":1509:1605   */\n      swap2\n      swap1\n      pop\n      jump\t// out\n        /* \"#utility.yul\":1611:1733   */\n    tag_115:\n        /* \"#utility.yul\":1684:1708   */\n      tag_176\n        /* \"#utility.yul\":1702:1707   */\n      dup2\n        /* \"#utility.yul\":1684:1708   */\n      tag_114\n      jump\t// in\n    tag_176:\n        /* \"#utility.yul\":1677:1682   */\n      dup2\n        /* \"#utility.yul\":1674:1709   */\n      eq\n        /* \"#utility.yul\":1664:1727   */\n      tag_177\n      jumpi\n        /* \"#utility.yul\":1723:1724   */\n      0x00\n        /* \"#utility.yul\":1720:1721   */\n      dup1\n        /* \"#utility.yul\":1713:1725   */\n      revert\n        /* \"#utility.yul\":1664:1727   */\n    tag_177:\n        /* \"#utility.yul\":1611:1733   */\n      pop\n      jump\t// out\n        /* \"#utility.yul\":1739:1878   */\n    tag_116:\n        /* \"#utility.yul\":1785:1790   */\n      0x00\n        /* \"#utility.yul\":1823:1829   */\n      dup2\n        /* \"#utility.yul\":1810:1830   */\n      calldataload\n        /* \"#utility.yul\":1801:1830   */\n      swap1\n      pop\n        /* \"#utility.yul\":1839:1872   */\n      tag_179\n        /* \"#utility.yul\":1866:1871   */\n      dup2\n        /* \"#utility.yul\":1839:1872   */\n      tag_115\n      jump\t// in\n    tag_179:\n        /* \"#utility.yul\":1739:1878   */\n      swap3\n      swap2\n      pop\n      pop\n      jump\t// out\n        /* \"#utility.yul\":1884:2213   */\n    tag_27:\n        /* \"#utility.yul\":1943:1949   */\n      0x00\n        /* \"#utility.yul\":1992:1994   */\n      0x20\n        /* \"#utility.yul\":1980:1989   */\n      dup3\n        /* \"#utility.yul\":1971:1978   */\n      dup5\n        /* \"#utility.yul\":1967:1990   */\n      sub\n        /* \"#utility.yul\":1963:1995   */\n      slt\n        /* \"#utility.yul\":1960:2079   */\n      iszero\n      tag_181\n      jumpi\n        /* \"#utility.yul\":1998:2077   */\n      tag_182\n      tag_107\n      jump\t// in\n    tag_182:\n        /* \"#utility.yul\":1960:2079   */\n    tag_181:\n        /* \"#utility.yul\":2118:2119   */\n      0x00\n        /* \"#utility.yul\":2143:2196   */\n      tag_183\n        /* \"#utility.yul\":2188:2195   */\n      dup5\n        /* \"#utility.yul\":2179:2185   */\n      dup3\n        /* \"#utility.yul\":2168:2177   */\n      dup6\n        /* \"#utility.yul\":2164:2186   */\n      add\n        /* \"#utility.yul\":2143:2196   */\n      tag_116\n      jump\t// in\n    tag_183:\n        /* \"#utility.yul\":2133:2196   */\n      swap2\n      pop\n        /* \"#utility.yul\":2089:2206   */\n      pop\n        /* \"#utility.yul\":1884:2213   */\n      swap3\n      swap2\n      pop\n      pop\n      jump\t// out\n        /* \"#utility.yul\":2219:2309   */\n    tag_117:\n        /* \"#utility.yul\":2253:2260   */\n      0x00\n        /* \"#utility.yul\":2296:2301   */\n      dup2\n        /* \"#utility.yul\":2289:2302   */\n      iszero\n        /* \"#utility.yul\":2282:2303   */\n      iszero\n        /* \"#utility.yul\":2271:2303   */\n      swap1\n      pop\n        /* \"#utility.yul\":2219:2309   */\n      swap2\n      swap1\n      pop\n      jump\t// out\n        /* \"#utility.yul\":2315:2424   */\n    tag_118:\n        /* \"#utility.yul\":2396:2417   */\n      tag_186\n        /* \"#utility.yul\":2411:2416   */\n      dup2\n        /* \"#utility.yul\":2396:2417   */\n      tag_117\n      jump\t// in\n    tag_186:\n        /* \"#utility.yul\":2391:2394   */\n      dup3\n        /* \"#utility.yul\":2384:2418   */\n      mstore\n        /* \"#utility.yul\":2315:2424   */\n      pop\n      pop\n      jump\t// out\n        /* \"#utility.yul\":2430:2640   */\n    tag_30:\n        /* \"#utility.yul\":2517:2521   */\n      0x00\n        /* \"#utility.yul\":2555:2557   */\n      0x20\n        /* \"#utility.yul\":2544:2553   */\n      dup3\n        /* \"#utility.yul\":2540:2558   */\n      add\n        /* \"#utility.yul\":2532:2558   */\n      swap1\n      pop\n        /* \"#utility.yul\":2568:2633   */\n      tag_188\n        /* \"#utility.yul\":2630:2631   */\n      0x00\n        /* \"#utility.yul\":2619:2628   */\n      dup4\n        /* \"#utility.yul\":2615:2632   */\n      add\n        /* \"#utility.yul\":2606:2612   */\n      dup5\n        /* \"#utility.yul\":2568:2633   */\n      tag_118\n      jump\t// in\n    tag_188:\n        /* \"#utility.yul\":2430:2640   */\n      swap3\n      swap2\n      pop\n      pop\n      jump\t// out\n        /* \"#utility.yul\":2646:2764   */\n    tag_119:\n        /* \"#utility.yul\":2733:2757   */\n      tag_190\n        /* \"#utility.yul\":2751:2756   */\n      dup2\n        /* \"#utility.yul\":2733:2757   */\n      tag_114\n      jump\t// in\n    tag_190:\n        /* \"#utility.yul\":2728:2731   */\n      dup3\n        /* \"#utility.yul\":2721:2758   */\n      mstore\n        /* \"#utility.yul\":2646:2764   */\n      pop\n      pop\n      jump\t// out\n        /* \"#utility.yul\":2770:2992   */\n    tag_35:\n        /* \"#utility.yul\":2863:2867   */\n      0x00\n        /* \"#utility.yul\":2901:2903   */\n      0x20\n        /* \"#utility.yul\":2890:2899   */\n      dup3\n        /* \"#utility.yul\":2886:2904   */\n      add\n        /* \"#utility.yul\":2878:2904   */\n      swap1\n      pop\n        /* \"#utility.yul\":2914:2985   */\n      tag_192\n        /* \"#utility.yul\":2982:2983   */\n      0x00\n        /* \"#utility.yul\":2971:2980   */\n      dup4\n        /* \"#utility.yul\":2967:2984   */\n      add\n        /* \"#utility.yul\":2958:2964   */\n      dup5\n        /* \"#utility.yul\":2914:2985   */\n      tag_119\n      jump\t// in\n    tag_192:\n        /* \"#utility.yul\":2770:2992   */\n      swap3\n      swap2\n      pop\n      pop\n      jump\t// out\n        /* \"#utility.yul\":2998:3662   */\n    tag_40:\n        /* \"#utility.yul\":3203:3207   */\n      0x00\n        /* \"#utility.yul\":3241:3244   */\n      0xa0\n        /* \"#utility.yul\":3230:3239   */\n      dup3\n        /* \"#utility.yul\":3226:3245   */\n      add\n        /* \"#utility.yul\":3218:3245   */\n      swap1\n      pop\n        /* \"#utility.yul\":3255:3326   */\n      tag_194\n        /* \"#utility.yul\":3323:3324   */\n      0x00\n        /* \"#utility.yul\":3312:3321   */\n      dup4\n        /* \"#utility.yul\":3308:3325   */\n      add\n        /* \"#utility.yul\":3299:3305   */\n      dup9\n        /* \"#utility.yul\":3255:3326   */\n      tag_112\n      jump\t// in\n    tag_194:\n        /* \"#utility.yul\":3336:3408   */\n      tag_195\n        /* \"#utility.yul\":3404:3406   */\n      0x20\n        /* \"#utility.yul\":3393:3402   */\n      dup4\n        /* \"#utility.yul\":3389:3407   */\n      add\n        /* \"#utility.yul\":3380:3386   */\n      dup8\n        /* \"#utility.yul\":3336:3408   */\n      tag_112\n      jump\t// in\n    tag_195:\n        /* \"#utility.yul\":3418:3490   */\n      tag_196\n        /* \"#utility.yul\":3486:3488   */\n      0x40\n        /* \"#utility.yul\":3475:3484   */\n      dup4\n        /* \"#utility.yul\":3471:3489   */\n      add\n        /* \"#utility.yul\":3462:3468   */\n      dup7\n        /* \"#utility.yul\":3418:3490   */\n      tag_112\n      jump\t// in\n    tag_196:\n        /* \"#utility.yul\":3500:3572   */\n      tag_197\n        /* \"#utility.yul\":3568:3570   */\n      0x60\n        /* \"#utility.yul\":3557:3566   */\n      dup4\n        /* \"#utility.yul\":3553:3571   */\n      add\n        /* \"#utility.yul\":3544:3550   */\n      dup6\n        /* \"#utility.yul\":3500:3572   */\n      tag_112\n      jump\t// in\n    tag_197:\n        /* \"#utility.yul\":3582:3655   */\n      tag_198\n        /* \"#utility.yul\":3650:3653   */\n      0x80\n        /* \"#utility.yul\":3639:3648   */\n      dup4\n        /* \"#utility.yul\":3635:3654   */\n      add\n        /* \"#utility.yul\":3626:3632   */\n      dup5\n        /* \"#utility.yul\":3582:3655   */\n      tag_119\n      jump\t// in\n    tag_198:\n        /* \"#utility.yul\":2998:3662   */\n      swap7\n      swap6\n      pop\n      pop\n      pop\n      pop\n      pop\n      pop\n      jump\t// out\n        /* \"#utility.yul\":3668:3767   */\n    tag_120:\n        /* \"#utility.yul\":3720:3726   */\n      0x00\n        /* \"#utility.yul\":3754:3759   */\n      dup2\n        /* \"#utility.yul\":3748:3760   */\n      mload\n        /* \"#utility.yul\":3738:3760   */\n      swap1\n      pop\n        /* \"#utility.yul\":3668:3767   */\n      swap2\n      swap1\n      pop\n      jump\t// out\n        /* \"#utility.yul\":3773:3942   */\n    tag_121:\n        /* \"#utility.yul\":3857:3868   */\n      0x00\n        /* \"#utility.yul\":3891:3897   */\n      dup3\n        /* \"#utility.yul\":3886:3889   */\n      dup3\n        /* \"#utility.yul\":3879:3898   */\n      mstore\n        /* \"#utility.yul\":3931:3935   */\n      0x20\n        /* \"#utility.yul\":3926:3929   */\n      dup3\n        /* \"#utility.yul\":3922:3936   */\n      add\n        /* \"#utility.yul\":3907:3936   */\n      swap1\n      pop\n        /* \"#utility.yul\":3773:3942   */\n      swap3\n      swap2\n      pop\n      pop\n      jump\t// out\n        /* \"#utility.yul\":3948:4255   */\n    tag_122:\n        /* \"#utility.yul\":4016:4017   */\n      0x00\n        /* \"#utility.yul\":4026:4139   */\n    tag_202:\n        /* \"#utility.yul\":4040:4046   */\n      dup4\n        /* \"#utility.yul\":4037:4038   */\n      dup2\n        /* \"#utility.yul\":4034:4047   */\n      lt\n        /* \"#utility.yul\":4026:4139   */\n      iszero\n      tag_204\n      jumpi\n        /* \"#utility.yul\":4125:4126   */\n      dup1\n        /* \"#utility.yul\":4120:4123   */\n      dup3\n        /* \"#utility.yul\":4116:4127   */\n      add\n        /* \"#utility.yul\":4110:4128   */\n      mload\n        /* \"#utility.yul\":4106:4107   */\n      dup2\n        /* \"#utility.yul\":4101:4104   */\n      dup5\n        /* \"#utility.yul\":4097:4108   */\n      add\n        /* \"#utility.yul\":4090:4129   */\n      mstore\n        /* \"#utility.yul\":4062:4064   */\n      0x20\n        /* \"#utility.yul\":4059:4060   */\n      dup2\n        /* \"#utility.yul\":4055:4065   */\n      add\n        /* \"#utility.yul\":4050:4065   */\n      swap1\n      pop\n        /* \"#utility.yul\":4026:4139   */\n      jump(tag_202)\n    tag_204:\n        /* \"#utility.yul\":4157:4163   */\n      dup4\n        /* \"#utility.yul\":4154:4155   */\n      dup2\n        /* \"#utility.yul\":4151:4164   */\n      gt\n        /* \"#utility.yul\":4148:4249   */\n      iszero\n      tag_205\n      jumpi\n        /* \"#utility.yul\":4237:4238   */\n      0x00\n        /* \"#utility.yul\":4228:4234   */\n      dup5\n        /* \"#utility.yul\":4223:4226   */\n      dup5\n        /* \"#utility.yul\":4219:4235   */\n      add\n        /* \"#utility.yul\":4212:4239   */\n      mstore\n        /* \"#utility.yul\":4148:4249   */\n    tag_205:\n        /* \"#utility.yul\":3997:4255   */\n      pop\n        /* \"#utility.yul\":3948:4255   */\n      pop\n      pop\n      pop\n      jump\t// out\n        /* \"#utility.yul\":4261:4363   */\n    tag_123:\n        /* \"#utility.yul\":4302:4308   */\n      0x00\n        /* \"#utility.yul\":4353:4355   */\n      0x1f\n        /* \"#utility.yul\":4349:4356   */\n      not\n        /* \"#utility.yul\":4344:4346   */\n      0x1f\n        /* \"#utility.yul\":4337:4342   */\n      dup4\n        /* \"#utility.yul\":4333:4347   */\n      add\n        /* \"#utility.yul\":4329:4357   */\n      and\n        /* \"#utility.yul\":4319:4357   */\n      swap1\n      pop\n        /* \"#utility.yul\":4261:4363   */\n      swap2\n      swap1\n      pop\n      jump\t// out\n        /* \"#utility.yul\":4369:4733   */\n    tag_124:\n        /* \"#utility.yul\":4457:4460   */\n      0x00\n        /* \"#utility.yul\":4485:4524   */\n      tag_208\n        /* \"#utility.yul\":4518:4523   */\n      dup3\n        /* \"#utility.yul\":4485:4524   */\n      tag_120\n      jump\t// in\n    tag_208:\n        /* \"#utility.yul\":4540:4611   */\n      tag_209\n        /* \"#utility.yul\":4604:4610   */\n      dup2\n        /* \"#utility.yul\":4599:4602   */\n      dup6\n        /* \"#utility.yul\":4540:4611   */\n      tag_121\n      jump\t// in\n    tag_209:\n        /* \"#utility.yul\":4533:4611   */\n      swap4\n      pop\n        /* \"#utility.yul\":4620:4672   */\n      tag_210\n        /* \"#utility.yul\":4665:4671   */\n      dup2\n        /* \"#utility.yul\":4660:4663   */\n      dup6\n        /* \"#utility.yul\":4653:4657   */\n      0x20\n        /* \"#utility.yul\":4646:4651   */\n      dup7\n        /* \"#utility.yul\":4642:4658   */\n      add\n        /* \"#utility.yul\":4620:4672   */\n      tag_122\n      jump\t// in\n    tag_210:\n        /* \"#utility.yul\":4697:4726   */\n      tag_211\n        /* \"#utility.yul\":4719:4725   */\n      dup2\n        /* \"#utility.yul\":4697:4726   */\n      tag_123\n      jump\t// in\n    tag_211:\n        /* \"#utility.yul\":4692:4695   */\n      dup5\n        /* \"#utility.yul\":4688:4727   */\n      add\n        /* \"#utility.yul\":4681:4727   */\n      swap2\n      pop\n        /* \"#utility.yul\":4461:4733   */\n      pop\n        /* \"#utility.yul\":4369:4733   */\n      swap3\n      swap2\n      pop\n      pop\n      jump\t// out\n        /* \"#utility.yul\":4739:4843   */\n    tag_125:\n        /* \"#utility.yul\":4784:4791   */\n      0x00\n        /* \"#utility.yul\":4813:4837   */\n      tag_213\n        /* \"#utility.yul\":4831:4836   */\n      dup3\n        /* \"#utility.yul\":4813:4837   */\n      tag_113\n      jump\t// in\n    tag_213:\n        /* \"#utility.yul\":4802:4837   */\n      swap1\n      pop\n        /* \"#utility.yul\":4739:4843   */\n      swap2\n      swap1\n      pop\n      jump\t// out\n        /* \"#utility.yul\":4849:4991   */\n    tag_126:\n        /* \"#utility.yul\":4952:4984   */\n      tag_215\n        /* \"#utility.yul\":4978:4983   */\n      dup2\n        /* \"#utility.yul\":4952:4984   */\n      tag_125\n      jump\t// in\n    tag_215:\n        /* \"#utility.yul\":4947:4950   */\n      dup3\n        /* \"#utility.yul\":4940:4985   */\n      mstore\n        /* \"#utility.yul\":4849:4991   */\n      pop\n      pop\n      jump\t// out\n        /* \"#utility.yul\":4997:5772   */\n    tag_46:\n        /* \"#utility.yul\":5232:5236   */\n      0x00\n        /* \"#utility.yul\":5270:5273   */\n      0xa0\n        /* \"#utility.yul\":5259:5268   */\n      dup3\n        /* \"#utility.yul\":5255:5274   */\n      add\n        /* \"#utility.yul\":5247:5274   */\n      swap1\n      pop\n        /* \"#utility.yul\":5320:5329   */\n      dup2\n        /* \"#utility.yul\":5314:5318   */\n      dup2\n        /* \"#utility.yul\":5310:5330   */\n      sub\n        /* \"#utility.yul\":5306:5307   */\n      0x00\n        /* \"#utility.yul\":5295:5304   */\n      dup4\n        /* \"#utility.yul\":5291:5308   */\n      add\n        /* \"#utility.yul\":5284:5331   */\n      mstore\n        /* \"#utility.yul\":5348:5426   */\n      tag_217\n        /* \"#utility.yul\":5421:5425   */\n      dup2\n        /* \"#utility.yul\":5412:5418   */\n      dup9\n        /* \"#utility.yul\":5348:5426   */\n      tag_124\n      jump\t// in\n    tag_217:\n        /* \"#utility.yul\":5340:5426   */\n      swap1\n      pop\n        /* \"#utility.yul\":5436:5508   */\n      tag_218\n        /* \"#utility.yul\":5504:5506   */\n      0x20\n        /* \"#utility.yul\":5493:5502   */\n      dup4\n        /* \"#utility.yul\":5489:5507   */\n      add\n        /* \"#utility.yul\":5480:5486   */\n      dup8\n        /* \"#utility.yul\":5436:5508   */\n      tag_112\n      jump\t// in\n    tag_218:\n        /* \"#utility.yul\":5518:5606   */\n      tag_219\n        /* \"#utility.yul\":5602:5604   */\n      0x40\n        /* \"#utility.yul\":5591:5600   */\n      dup4\n        /* \"#utility.yul\":5587:5605   */\n      add\n        /* \"#utility.yul\":5578:5584   */\n      dup7\n        /* \"#utility.yul\":5518:5606   */\n      tag_126\n      jump\t// in\n    tag_219:\n        /* \"#utility.yul\":5616:5682   */\n      tag_220\n        /* \"#utility.yul\":5678:5680   */\n      0x60\n        /* \"#utility.yul\":5667:5676   */\n      dup4\n        /* \"#utility.yul\":5663:5681   */\n      add\n        /* \"#utility.yul\":5654:5660   */\n      dup6\n        /* \"#utility.yul\":5616:5682   */\n      tag_118\n      jump\t// in\n    tag_220:\n        /* \"#utility.yul\":5692:5765   */\n      tag_221\n        /* \"#utility.yul\":5760:5763   */\n      0x80\n        /* \"#utility.yul\":5749:5758   */\n      dup4\n        /* \"#utility.yul\":5745:5764   */\n      add\n        /* \"#utility.yul\":5736:5742   */\n      dup5\n        /* \"#utility.yul\":5692:5765   */\n      tag_112\n      jump\t// in\n    tag_221:\n        /* \"#utility.yul\":4997:5772   */\n      swap7\n      swap6\n      pop\n      pop\n      pop\n      pop\n      pop\n      pop\n      jump\t// out\n        /* \"#utility.yul\":5778:5895   */\n    tag_127:\n        /* \"#utility.yul\":5887:5888   */\n      0x00\n        /* \"#utility.yul\":5884:5885   */\n      dup1\n        /* \"#utility.yul\":5877:5889   */\n      revert\n        /* \"#utility.yul\":5901:6018   */\n    tag_128:\n        /* \"#utility.yul\":6010:6011   */\n      0x00\n        /* \"#utility.yul\":6007:6008   */\n      dup1\n        /* \"#utility.yul\":6000:6012   */\n      revert\n        /* \"#utility.yul\":6024:6204   */\n    tag_129:\n        /* \"#utility.yul\":6072:6149   */\n      0x4e487b7100000000000000000000000000000000000000000000000000000000\n        /* \"#utility.yul\":6069:6070   */\n      0x00\n        /* \"#utility.yul\":6062:6150   */\n      mstore\n        /* \"#utility.yul\":6169:6173   */\n      0x41\n        /* \"#utility.yul\":6166:6167   */\n      0x04\n        /* \"#utility.yul\":6159:6174   */\n      mstore\n        /* \"#utility.yul\":6193:6197   */\n      0x24\n        /* \"#utility.yul\":6190:6191   */\n      0x00\n        /* \"#utility.yul\":6183:6198   */\n      revert\n        /* \"#utility.yul\":6210:6491   */\n    tag_130:\n        /* \"#utility.yul\":6293:6320   */\n      tag_226\n        /* \"#utility.yul\":6315:6319   */\n      dup3\n        /* \"#utility.yul\":6293:6320   */\n      tag_123\n      jump\t// in\n    tag_226:\n        /* \"#utility.yul\":6285:6291   */\n      dup2\n        /* \"#utility.yul\":6281:6321   */\n      add\n        /* \"#utility.yul\":6423:6429   */\n      dup2\n        /* \"#utility.yul\":6411:6421   */\n      dup2\n        /* \"#utility.yul\":6408:6430   */\n      lt\n        /* \"#utility.yul\":6387:6405   */\n      0xffffffffffffffff\n        /* \"#utility.yul\":6375:6385   */\n      dup3\n        /* \"#utility.yul\":6372:6406   */\n      gt\n        /* \"#utility.yul\":6369:6431   */\n      or\n        /* \"#utility.yul\":6366:6454   */\n      iszero\n      tag_227\n      jumpi\n        /* \"#utility.yul\":6434:6452   */\n      tag_228\n      tag_129\n      jump\t// in\n    tag_228:\n        /* \"#utility.yul\":6366:6454   */\n    tag_227:\n        /* \"#utility.yul\":6474:6484   */\n      dup1\n        /* \"#utility.yul\":6470:6472   */\n      0x40\n        /* \"#utility.yul\":6463:6485   */\n      mstore\n        /* \"#utility.yul\":6253:6491   */\n      pop\n        /* \"#utility.yul\":6210:6491   */\n      pop\n      pop\n      jump\t// out\n        /* \"#utility.yul\":6497:6626   */\n    tag_131:\n        /* \"#utility.yul\":6531:6537   */\n      0x00\n        /* \"#utility.yul\":6558:6578   */\n      tag_230\n      tag_106\n      jump\t// in\n    tag_230:\n        /* \"#utility.yul\":6548:6578   */\n      swap1\n      pop\n        /* \"#utility.yul\":6587:6620   */\n      tag_231\n        /* \"#utility.yul\":6615:6619   */\n      dup3\n        /* \"#utility.yul\":6607:6613   */\n      dup3\n        /* \"#utility.yul\":6587:6620   */\n      tag_130\n      jump\t// in\n    tag_231:\n        /* \"#utility.yul\":6497:6626   */\n      swap2\n      swap1\n      pop\n      jump\t// out\n        /* \"#utility.yul\":6632:6940   */\n    tag_132:\n        /* \"#utility.yul\":6694:6698   */\n      0x00\n        /* \"#utility.yul\":6784:6802   */\n      0xffffffffffffffff\n        /* \"#utility.yul\":6776:6782   */\n      dup3\n        /* \"#utility.yul\":6773:6803   */\n      gt\n        /* \"#utility.yul\":6770:6826   */\n      iszero\n      tag_233\n      jumpi\n        /* \"#utility.yul\":6806:6824   */\n      tag_234\n      tag_129\n      jump\t// in\n    tag_234:\n        /* \"#utility.yul\":6770:6826   */\n    tag_233:\n        /* \"#utility.yul\":6844:6873   */\n      tag_235\n        /* \"#utility.yul\":6866:6872   */\n      dup3\n        /* \"#utility.yul\":6844:6873   */\n      tag_123\n      jump\t// in\n    tag_235:\n        /* \"#utility.yul\":6836:6873   */\n      swap1\n      pop\n        /* \"#utility.yul\":6928:6932   */\n      0x20\n        /* \"#utility.yul\":6922:6926   */\n      dup2\n        /* \"#utility.yul\":6918:6933   */\n      add\n        /* \"#utility.yul\":6910:6933   */\n      swap1\n      pop\n        /* \"#utility.yul\":6632:6940   */\n      swap2\n      swap1\n      pop\n      jump\t// out\n        /* \"#utility.yul\":6946:7100   */\n    tag_133:\n        /* \"#utility.yul\":7030:7036   */\n      dup3\n        /* \"#utility.yul\":7025:7028   */\n      dup2\n        /* \"#utility.yul\":7020:7023   */\n      dup4\n        /* \"#utility.yul\":7007:7037   */\n      calldatacopy\n        /* \"#utility.yul\":7092:7093   */\n      0x00\n        /* \"#utility.yul\":7083:7089   */\n      dup4\n        /* \"#utility.yul\":7078:7081   */\n      dup4\n        /* \"#utility.yul\":7074:7090   */\n      add\n        /* \"#utility.yul\":7067:7094   */\n      mstore\n        /* \"#utility.yul\":6946:7100   */\n      pop\n      pop\n      pop\n      jump\t// out\n        /* \"#utility.yul\":7106:7518   */\n    tag_134:\n        /* \"#utility.yul\":7184:7189   */\n      0x00\n        /* \"#utility.yul\":7209:7275   */\n      tag_238\n        /* \"#utility.yul\":7225:7274   */\n      tag_239\n        /* \"#utility.yul\":7267:7273   */\n      dup5\n        /* \"#utility.yul\":7225:7274   */\n      tag_132\n      jump\t// in\n    tag_239:\n        /* \"#utility.yul\":7209:7275   */\n      tag_131\n      jump\t// in\n    tag_238:\n        /* \"#utility.yul\":7200:7275   */\n      swap1\n      pop\n        /* \"#utility.yul\":7298:7304   */\n      dup3\n        /* \"#utility.yul\":7291:7296   */\n      dup2\n        /* \"#utility.yul\":7284:7305   */\n      mstore\n        /* \"#utility.yul\":7336:7340   */\n      0x20\n        /* \"#utility.yul\":7329:7334   */\n      dup2\n        /* \"#utility.yul\":7325:7341   */\n      add\n        /* \"#utility.yul\":7374:7377   */\n      dup5\n        /* \"#utility.yul\":7365:7371   */\n      dup5\n        /* \"#utility.yul\":7360:7363   */\n      dup5\n        /* \"#utility.yul\":7356:7372   */\n      add\n        /* \"#utility.yul\":7353:7378   */\n      gt\n        /* \"#utility.yul\":7350:7462   */\n      iszero\n      tag_240\n      jumpi\n        /* \"#utility.yul\":7381:7460   */\n      tag_241\n      tag_128\n      jump\t// in\n    tag_241:\n        /* \"#utility.yul\":7350:7462   */\n    tag_240:\n        /* \"#utility.yul\":7471:7512   */\n      tag_242\n        /* \"#utility.yul\":7505:7511   */\n      dup5\n        /* \"#utility.yul\":7500:7503   */\n      dup3\n        /* \"#utility.yul\":7495:7498   */\n      dup6\n        /* \"#utility.yul\":7471:7512   */\n      tag_133\n      jump\t// in\n    tag_242:\n        /* \"#utility.yul\":7190:7518   */\n      pop\n        /* \"#utility.yul\":7106:7518   */\n      swap4\n      swap3\n      pop\n      pop\n      pop\n      jump\t// out\n        /* \"#utility.yul\":7538:7878   */\n    tag_135:\n        /* \"#utility.yul\":7594:7599   */\n      0x00\n        /* \"#utility.yul\":7643:7646   */\n      dup3\n        /* \"#utility.yul\":7636:7640   */\n      0x1f\n        /* \"#utility.yul\":7628:7634   */\n      dup4\n        /* \"#utility.yul\":7624:7641   */\n      add\n        /* \"#utility.yul\":7620:7647   */\n      slt\n        /* \"#utility.yul\":7610:7732   */\n      tag_244\n      jumpi\n        /* \"#utility.yul\":7651:7730   */\n      tag_245\n      tag_127\n      jump\t// in\n    tag_245:\n        /* \"#utility.yul\":7610:7732   */\n    tag_244:\n        /* \"#utility.yul\":7768:7774   */\n      dup2\n        /* \"#utility.yul\":7755:7775   */\n      calldataload\n        /* \"#utility.yul\":7793:7872   */\n      tag_246\n        /* \"#utility.yul\":7868:7871   */\n      dup5\n        /* \"#utility.yul\":7860:7866   */\n      dup3\n        /* \"#utility.yul\":7853:7857   */\n      0x20\n        /* \"#utility.yul\":7845:7851   */\n      dup7\n        /* \"#utility.yul\":7841:7858   */\n      add\n        /* \"#utility.yul\":7793:7872   */\n      tag_134\n      jump\t// in\n    tag_246:\n        /* \"#utility.yul\":7784:7872   */\n      swap2\n      pop\n        /* \"#utility.yul\":7600:7878   */\n      pop\n        /* \"#utility.yul\":7538:7878   */\n      swap3\n      swap2\n      pop\n      pop\n      jump\t// out\n        /* \"#utility.yul\":7884:8683   */\n    tag_50:\n        /* \"#utility.yul\":7971:7977   */\n      0x00\n        /* \"#utility.yul\":7979:7985   */\n      dup1\n        /* \"#utility.yul\":7987:7993   */\n      0x00\n        /* \"#utility.yul\":8036:8038   */\n      0x60\n        /* \"#utility.yul\":8024:8033   */\n      dup5\n        /* \"#utility.yul\":8015:8022   */\n      dup7\n        /* \"#utility.yul\":8011:8034   */\n      sub\n        /* \"#utility.yul\":8007:8039   */\n      slt\n        /* \"#utility.yul\":8004:8123   */\n      iszero\n      tag_248\n      jumpi\n        /* \"#utility.yul\":8042:8121   */\n      tag_249\n      tag_107\n      jump\t// in\n    tag_249:\n        /* \"#utility.yul\":8004:8123   */\n    tag_248:\n        /* \"#utility.yul\":8190:8191   */\n      0x00\n        /* \"#utility.yul\":8179:8188   */\n      dup5\n        /* \"#utility.yul\":8175:8192   */\n      add\n        /* \"#utility.yul\":8162:8193   */\n      calldataload\n        /* \"#utility.yul\":8220:8238   */\n      0xffffffffffffffff\n        /* \"#utility.yul\":8212:8218   */\n      dup2\n        /* \"#utility.yul\":8209:8239   */\n      gt\n        /* \"#utility.yul\":8206:8323   */\n      iszero\n      tag_250\n      jumpi\n        /* \"#utility.yul\":8242:8321   */\n      tag_251\n      tag_108\n      jump\t// in\n    tag_251:\n        /* \"#utility.yul\":8206:8323   */\n    tag_250:\n        /* \"#utility.yul\":8347:8410   */\n      tag_252\n        /* \"#utility.yul\":8402:8409   */\n      dup7\n        /* \"#utility.yul\":8393:8399   */\n      dup3\n        /* \"#utility.yul\":8382:8391   */\n      dup8\n        /* \"#utility.yul\":8378:8400   */\n      add\n        /* \"#utility.yul\":8347:8410   */\n      tag_135\n      jump\t// in\n    tag_252:\n        /* \"#utility.yul\":8337:8410   */\n      swap4\n      pop\n        /* \"#utility.yul\":8133:8420   */\n      pop\n        /* \"#utility.yul\":8459:8461   */\n      0x20\n        /* \"#utility.yul\":8485:8538   */\n      tag_253\n        /* \"#utility.yul\":8530:8537   */\n      dup7\n        /* \"#utility.yul\":8521:8527   */\n      dup3\n        /* \"#utility.yul\":8510:8519   */\n      dup8\n        /* \"#utility.yul\":8506:8528   */\n      add\n        /* \"#utility.yul\":8485:8538   */\n      tag_111\n      jump\t// in\n    tag_253:\n        /* \"#utility.yul\":8475:8538   */\n      swap3\n      pop\n        /* \"#utility.yul\":8430:8548   */\n      pop\n        /* \"#utility.yul\":8587:8589   */\n      0x40\n        /* \"#utility.yul\":8613:8666   */\n      tag_254\n        /* \"#utility.yul\":8658:8665   */\n      dup7\n        /* \"#utility.yul\":8649:8655   */\n      dup3\n        /* \"#utility.yul\":8638:8647   */\n      dup8\n        /* \"#utility.yul\":8634:8656   */\n      add\n        /* \"#utility.yul\":8613:8666   */\n      tag_116\n      jump\t// in\n    tag_254:\n        /* \"#utility.yul\":8603:8666   */\n      swap2\n      pop\n        /* \"#utility.yul\":8558:8676   */\n      pop\n        /* \"#utility.yul\":7884:8683   */\n      swap3\n      pop\n      swap3\n      pop\n      swap3\n      jump\t// out\n        /* \"#utility.yul\":8689:8869   */\n    tag_71:\n        /* \"#utility.yul\":8737:8814   */\n      0x4e487b7100000000000000000000000000000000000000000000000000000000\n        /* \"#utility.yul\":8734:8735   */\n      0x00\n        /* \"#utility.yul\":8727:8815   */\n      mstore\n        /* \"#utility.yul\":8834:8838   */\n      0x32\n        /* \"#utility.yul\":8831:8832   */\n      0x04\n        /* \"#utility.yul\":8824:8839   */\n      mstore\n        /* \"#utility.yul\":8858:8862   */\n      0x24\n        /* \"#utility.yul\":8855:8856   */\n      0x00\n        /* \"#utility.yul\":8848:8863   */\n      revert\n        /* \"#utility.yul\":8875:9055   */\n    tag_136:\n        /* \"#utility.yul\":8923:9000   */\n      0x4e487b7100000000000000000000000000000000000000000000000000000000\n        /* \"#utility.yul\":8920:8921   */\n      0x00\n        /* \"#utility.yul\":8913:9001   */\n      mstore\n        /* \"#utility.yul\":9020:9024   */\n      0x12\n        /* \"#utility.yul\":9017:9018   */\n      0x04\n        /* \"#utility.yul\":9010:9025   */\n      mstore\n        /* \"#utility.yul\":9044:9048   */\n      0x24\n        /* \"#utility.yul\":9041:9042   */\n      0x00\n        /* \"#utility.yul\":9034:9049   */\n      revert\n        /* \"#utility.yul\":9061:9241   */\n    tag_137:\n        /* \"#utility.yul\":9109:9186   */\n      0x4e487b7100000000000000000000000000000000000000000000000000000000\n        /* \"#utility.yul\":9106:9107   */\n      0x00\n        /* \"#utility.yul\":9099:9187   */\n      mstore\n        /* \"#utility.yul\":9206:9210   */\n      0x11\n        /* \"#utility.yul\":9203:9204   */\n      0x04\n        /* \"#utility.yul\":9196:9211   */\n      mstore\n        /* \"#utility.yul\":9230:9234   */\n      0x24\n        /* \"#utility.yul\":9227:9228   */\n      0x00\n        /* \"#utility.yul\":9220:9235   */\n      revert\n        /* \"#utility.yul\":9247:9432   */\n    tag_74:\n        /* \"#utility.yul\":9287:9288   */\n      0x00\n        /* \"#utility.yul\":9304:9324   */\n      tag_259\n        /* \"#utility.yul\":9322:9323   */\n      dup3\n        /* \"#utility.yul\":9304:9324   */\n      tag_109\n      jump\t// in\n    tag_259:\n        /* \"#utility.yul\":9299:9324   */\n      swap2\n      pop\n        /* \"#utility.yul\":9338:9358   */\n      tag_260\n        /* \"#utility.yul\":9356:9357   */\n      dup4\n        /* \"#utility.yul\":9338:9358   */\n      tag_109\n      jump\t// in\n    tag_260:\n        /* \"#utility.yul\":9333:9358   */\n      swap3\n      pop\n        /* \"#utility.yul\":9377:9378   */\n      dup3\n        /* \"#utility.yul\":9367:9402   */\n      tag_261\n      jumpi\n        /* \"#utility.yul\":9382:9400   */\n      tag_262\n      tag_136\n      jump\t// in\n    tag_262:\n        /* \"#utility.yul\":9367:9402   */\n    tag_261:\n        /* \"#utility.yul\":9424:9425   */\n      dup3\n        /* \"#utility.yul\":9421:9422   */\n      dup3\n        /* \"#utility.yul\":9417:9426   */\n      div\n        /* \"#utility.yul\":9412:9426   */\n      swap1\n      pop\n        /* \"#utility.yul\":9247:9432   */\n      swap3\n      swap2\n      pop\n      pop\n      jump\t// out\n        /* \"#utility.yul\":9438:9618   */\n    tag_138:\n        /* \"#utility.yul\":9486:9563   */\n      0x4e487b7100000000000000000000000000000000000000000000000000000000\n        /* \"#utility.yul\":9483:9484   */\n      0x00\n        /* \"#utility.yul\":9476:9564   */\n      mstore\n        /* \"#utility.yul\":9583:9587   */\n      0x22\n        /* \"#utility.yul\":9580:9581   */\n      0x04\n        /* \"#utility.yul\":9573:9588   */\n      mstore\n        /* \"#utility.yul\":9607:9611   */\n      0x24\n        /* \"#utility.yul\":9604:9605   */\n      0x00\n        /* \"#utility.yul\":9597:9612   */\n      revert\n        /* \"#utility.yul\":9624:9944   */\n    tag_84:\n        /* \"#utility.yul\":9668:9674   */\n      0x00\n        /* \"#utility.yul\":9705:9706   */\n      0x02\n        /* \"#utility.yul\":9699:9703   */\n      dup3\n        /* \"#utility.yul\":9695:9707   */\n      div\n        /* \"#utility.yul\":9685:9707   */\n      swap1\n      pop\n        /* \"#utility.yul\":9752:9753   */\n      0x01\n        /* \"#utility.yul\":9746:9750   */\n      dup3\n        /* \"#utility.yul\":9742:9754   */\n      and\n        /* \"#utility.yul\":9773:9791   */\n      dup1\n        /* \"#utility.yul\":9763:9844   */\n      tag_265\n      jumpi\n        /* \"#utility.yul\":9829:9833   */\n      0x7f\n        /* \"#utility.yul\":9821:9827   */\n      dup3\n        /* \"#utility.yul\":9817:9834   */\n      and\n        /* \"#utility.yul\":9807:9834   */\n      swap2\n      pop\n        /* \"#utility.yul\":9763:9844   */\n    tag_265:\n        /* \"#utility.yul\":9891:9893   */\n      0x20\n        /* \"#utility.yul\":9883:9889   */\n      dup3\n        /* \"#utility.yul\":9880:9894   */\n      lt\n        /* \"#utility.yul\":9860:9878   */\n      dup2\n        /* \"#utility.yul\":9857:9895   */\n      sub\n        /* \"#utility.yul\":9854:9938   */\n      tag_266\n      jumpi\n        /* \"#utility.yul\":9910:9928   */\n      tag_267\n      tag_138\n      jump\t// in\n    tag_267:\n        /* \"#utility.yul\":9854:9938   */\n    tag_266:\n        /* \"#utility.yul\":9675:9944   */\n      pop\n        /* \"#utility.yul\":9624:9944   */\n      swap2\n      swap1\n      pop\n      jump\t// out\n        /* \"#utility.yul\":9950:10091   */\n    tag_139:\n        /* \"#utility.yul\":9999:10003   */\n      0x00\n        /* \"#utility.yul\":10022:10025   */\n      dup2\n        /* \"#utility.yul\":10014:10025   */\n      swap1\n      pop\n        /* \"#utility.yul\":10045:10048   */\n      dup2\n        /* \"#utility.yul\":10042:10043   */\n      0x00\n        /* \"#utility.yul\":10035:10049   */\n      mstore\n        /* \"#utility.yul\":10079:10083   */\n      0x20\n        /* \"#utility.yul\":10076:10077   */\n      0x00\n        /* \"#utility.yul\":10066:10084   */\n      keccak256\n        /* \"#utility.yul\":10058:10084   */\n      swap1\n      pop\n        /* \"#utility.yul\":9950:10091   */\n      swap2\n      swap1\n      pop\n      jump\t// out\n        /* \"#utility.yul\":10097:10190   */\n    tag_140:\n        /* \"#utility.yul\":10134:10140   */\n      0x00\n        /* \"#utility.yul\":10181:10183   */\n      0x20\n        /* \"#utility.yul\":10176:10178   */\n      0x1f\n        /* \"#utility.yul\":10169:10174   */\n      dup4\n        /* \"#utility.yul\":10165:10179   */\n      add\n        /* \"#utility.yul\":10161:10184   */\n      div\n        /* \"#utility.yul\":10151:10184   */\n      swap1\n      pop\n        /* \"#utility.yul\":10097:10190   */\n      swap2\n      swap1\n      pop\n      jump\t// out\n        /* \"#utility.yul\":10196:10303   */\n    tag_141:\n        /* \"#utility.yul\":10240:10248   */\n      0x00\n        /* \"#utility.yul\":10290:10295   */\n      dup3\n        /* \"#utility.yul\":10284:10288   */\n      dup3\n        /* \"#utility.yul\":10280:10296   */\n      shl\n        /* \"#utility.yul\":10259:10296   */\n      swap1\n      pop\n        /* \"#utility.yul\":10196:10303   */\n      swap3\n      swap2\n      pop\n      pop\n      jump\t// out\n        /* \"#utility.yul\":10309:10702   */\n    tag_142:\n        /* \"#utility.yul\":10378:10384   */\n      0x00\n        /* \"#utility.yul\":10428:10429   */\n      0x08\n        /* \"#utility.yul\":10416:10426   */\n      dup4\n        /* \"#utility.yul\":10412:10430   */\n      mul\n        /* \"#utility.yul\":10451:10548   */\n      tag_272\n        /* \"#utility.yul\":10481:10547   */\n      0xffffffffffffffffffffffffffffffffffffffffffffffffffffffffffffffff\n        /* \"#utility.yul\":10470:10479   */\n      dup3\n        /* \"#utility.yul\":10451:10548   */\n      tag_141\n      jump\t// in\n    tag_272:\n        /* \"#utility.yul\":10569:10608   */\n      tag_273\n        /* \"#utility.yul\":10599:10607   */\n      dup7\n        /* \"#utility.yul\":10588:10597   */\n      dup4\n        /* \"#utility.yul\":10569:10608   */\n      tag_141\n      jump\t// in\n    tag_273:\n        /* \"#utility.yul\":10557:10608   */\n      swap6\n      pop\n        /* \"#utility.yul\":10641:10645   */\n      dup1\n        /* \"#utility.yul\":10637:10646   */\n      not\n        /* \"#utility.yul\":10630:10635   */\n      dup5\n        /* \"#utility.yul\":10626:10647   */\n      and\n        /* \"#utility.yul\":10617:10647   */\n      swap4\n      pop\n        /* \"#utility.yul\":10690:10694   */\n      dup1\n        /* \"#utility.yul\":10680:10688   */\n      dup7\n        /* \"#utility.yul\":10676:10695   */\n      and\n        /* \"#utility.yul\":10669:10674   */\n      dup5\n        /* \"#utility.yul\":10666:10696   */\n      or\n        /* \"#utility.yul\":10656:10696   */\n      swap3\n      pop\n        /* \"#utility.yul\":10385:10702   */\n      pop\n      pop\n        /* \"#utility.yul\":10309:10702   */\n      swap4\n      swap3\n      pop\n      pop\n      pop\n      jump\t// out\n        /* \"#utility.yul\":10708:10768   */\n    tag_143:\n        /* \"#utility.yul\":10736:10739   */\n      0x00\n        /* \"#utility.yul\":10757:10762   */\n      dup2\n        /* \"#utility.yul\":10750:10762   */\n      swap1\n      pop\n        /* \"#utility.yul\":10708:10768   */\n      swap2\n      swap1\n      pop\n      jump\t// out\n        /* \"#utility.yul\":10774:10916   */\n    tag_144:\n        /* \"#utility.yul\":10824:10833   */\n      0x00\n        /* \"#utility.yul\":10857:10910   */\n      tag_276\n        /* \"#utility.yul\":10875:10909   */\n      tag_277\n        /* \"#utility.yul\":10884:10908   */\n      tag_278\n        /* \"#utility.yul\":10902:10907   */\n      dup5\n        /* \"#utility.yul\":10884:10908   */\n      tag_109\n      jump\t// in\n    tag_278:\n        /* \"#utility.yul\":10875:10909   */\n      tag_143\n      jump\t// in\n    tag_277:\n        /* \"#utility.yul\":10857:10910   */\n      tag_109\n      jump\t// in\n    tag_276:\n        /* \"#utility.yul\":10844:10910   */\n      swap1\n      pop\n        /* \"#utility.yul\":10774:10916   */\n      swap2\n      swap1\n      pop\n      jump\t// out\n        /* \"#utility.yul\":10922:10997   */\n    tag_145:\n        /* \"#utility.yul\":10965:10968   */\n      0x00\n        /* \"#utility.yul\":10986:10991   */\n      dup2\n        /* \"#utility.yul\":10979:10991   */\n      swap1\n      pop\n        /* \"#utility.yul\":10922:10997   */\n      swap2\n      swap1\n      pop\n      jump\t// out\n        /* \"#utility.yul\":11003:11272   */\n    tag_146:\n        /* \"#utility.yul\":11113:11152   */\n      tag_281\n        /* \"#utility.yul\":11144:11151   */\n      dup4\n        /* \"#utility.yul\":11113:11152   */\n      tag_144\n      jump\t// in\n    tag_281:\n        /* \"#utility.yul\":11174:11265   */\n      tag_282\n        /* \"#utility.yul\":11223:11264   */\n      tag_283\n        /* \"#utility.yul\":11247:11263   */\n      dup3\n        /* \"#utility.yul\":11223:11264   */\n      tag_145\n      jump\t// in\n    tag_283:\n        /* \"#utility.yul\":11215:11221   */\n      dup5\n        /* \"#utility.yul\":11208:11212   */\n      dup5\n        /* \"#utility.yul\":11202:11213   */\n      sload\n        /* \"#utility.yul\":11174:11265   */\n      tag_142\n      jump\t// in\n    tag_282:\n        /* \"#utility.yul\":11168:11172   */\n      dup3\n        /* \"#utility.yul\":11161:11266   */\n      sstore\n        /* \"#utility.yul\":11079:11272   */\n      pop\n        /* \"#utility.yul\":11003:11272   */\n      pop\n      pop\n      pop\n      jump\t// out\n        /* \"#utility.yul\":11278:11351   */\n    tag_147:\n        /* \"#utility.yul\":11323:11326   */\n      0x00\n        /* \"#utility.yul\":11278:11351   */\n      swap1\n      jump\t// out\n        /* \"#utility.yul\":11357:11546   */\n    tag_148:\n        /* \"#utility.yul\":11434:11466   */\n      tag_286\n      tag_147\n      jump\t// in\n    tag_286:\n        /* \"#utility.yul\":11475:11540   */\n      tag_287\n        /* \"#utility.yul\":11533:11539   */\n      dup2\n        /* \"#utility.yul\":11525:11531   */\n      dup5\n        /* \"#utility.yul\":11519:11523   */\n      dup5\n        /* \"#utility.yul\":11475:11540   */\n      tag_146\n      jump\t// in\n    tag_287:\n        /* \"#utility.yul\":11410:11546   */\n      pop\n        /* \"#utility.yul\":11357:11546   */\n      pop\n      pop\n      jump\t// out\n        /* \"#utility.yul\":11552:11738   */\n    tag_149:\n        /* \"#utility.yul\":11612:11732   */\n    tag_289:\n        /* \"#utility.yul\":11629:11632   */\n      dup2\n        /* \"#utility.yul\":11622:11627   */\n      dup2\n        /* \"#utility.yul\":11619:11633   */\n      lt\n        /* \"#utility.yul\":11612:11732   */\n      iszero\n      tag_291\n      jumpi\n        /* \"#utility.yul\":11683:11722   */\n      tag_292\n        /* \"#utility.yul\":11720:11721   */\n      0x00\n        /* \"#utility.yul\":11713:11718   */\n      dup3\n        /* \"#utility.yul\":11683:11722   */\n      tag_148\n      jump\t// in\n    tag_292:\n        /* \"#utility.yul\":11656:11657   */\n      0x01\n        /* \"#utility.yul\":11649:11654   */\n      dup2\n        /* \"#utility.yul\":11645:11658   */\n      add\n        /* \"#utility.yul\":11636:11658   */\n      swap1\n      pop\n        /* \"#utility.yul\":11612:11732   */\n      jump(tag_289)\n    tag_291:\n        /* \"#utility.yul\":11552:11738   */\n      pop\n      pop\n      jump\t// out\n        /* \"#utility.yul\":11744:12287   */\n    tag_150:\n        /* \"#utility.yul\":11845:11847   */\n      0x1f\n        /* \"#utility.yul\":11840:11843   */\n      dup3\n        /* \"#utility.yul\":11837:11848   */\n      gt\n        /* \"#utility.yul\":11834:12280   */\n      iszero\n      tag_294\n      jumpi\n        /* \"#utility.yul\":11879:11917   */\n      tag_295\n        /* \"#utility.yul\":11911:11916   */\n      dup2\n        /* \"#utility.yul\":11879:11917   */\n      tag_139\n      jump\t// in\n    tag_295:\n        /* \"#utility.yul\":11963:11992   */\n      tag_296\n        /* \"#utility.yul\":11981:11991   */\n      dup5\n        /* \"#utility.yul\":11963:11992   */\n      tag_140\n      jump\t// in\n    tag_296:\n        /* \"#utility.yul\":11953:11961   */\n      dup2\n        /* \"#utility.yul\":11949:11993   */\n      add\n        /* \"#utility.yul\":12146:12148   */\n      0x20\n        /* \"#utility.yul\":12134:12144   */\n      dup6\n        /* \"#utility.yul\":12131:12149   */\n      lt\n        /* \"#utility.yul\":12128:12177   */\n      iszero\n      tag_297\n      jumpi\n        /* \"#utility.yul\":12167:12175   */\n      dup2\n        /* \"#utility.yul\":12152:12175   */\n      swap1\n      pop\n        /* \"#utility.yul\":12128:12177   */\n    tag_297:\n        /* \"#utility.yul\":12190:12270   */\n      tag_298\n        /* \"#utility.yul\":12246:12268   */\n      tag_299\n        /* \"#utility.yul\":12264:12267   */\n      dup6\n        /* \"#utility.yul\":12246:12268   */\n      tag_140\n      jump\t// in\n    tag_299:\n        /* \"#utility.yul\":12236:12244   */\n      dup4\n        /* \"#utility.yul\":12232:12269   */\n      add\n        /* \"#utility.yul\":12219:12230   */\n      dup3\n        /* \"#utility.yul\":12190:12270   */\n      tag_149\n      jump\t// in\n    tag_298:\n        /* \"#utility.yul\":11849:12280   */\n      pop\n      pop\n        /* \"#utility.yul\":11834:12280   */\n    tag_294:\n        /* \"#utility.yul\":11744:12287   */\n      pop\n      pop\n      pop\n      jump\t// out\n        /* \"#utility.yul\":12293:12410   */\n    tag_151:\n        /* \"#utility.yul\":12347:12355   */\n      0x00\n        /* \"#utility.yul\":12397:12402   */\n      dup3\n        /* \"#utility.yul\":12391:12395   */\n      dup3\n        /* \"#utility.yul\":12387:12403   */\n      shr\n        /* \"#utility.yul\":12366:12403   */\n      swap1\n      pop\n        /* \"#utility.yul\":12293:12410   */\n      swap3\n      swap2\n      pop\n      pop\n      jump\t// out\n        /* \"#utility.yul\":12416:12585   */\n    tag_152:\n        /* \"#utility.yul\":12460:12466   */\n      0x00\n        /* \"#utility.yul\":12493:12544   */\n      tag_302\n        /* \"#utility.yul\":12541:12542   */\n      0x00\n        /* \"#utility.yul\":12537:12543   */\n      not\n        /* \"#utility.yul\":12529:12534   */\n      dup5\n        /* \"#utility.yul\":12526:12527   */\n      0x08\n        /* \"#utility.yul\":12522:12535   */\n      mul\n        /* \"#utility.yul\":12493:12544   */\n      tag_151\n      jump\t// in\n    tag_302:\n        /* \"#utility.yul\":12489:12545   */\n      not\n        /* \"#utility.yul\":12574:12578   */\n      dup1\n        /* \"#utility.yul\":12568:12572   */\n      dup4\n        /* \"#utility.yul\":12564:12579   */\n      and\n        /* \"#utility.yul\":12554:12579   */\n      swap2\n      pop\n        /* \"#utility.yul\":12467:12585   */\n      pop\n        /* \"#utility.yul\":12416:12585   */\n      swap3\n      swap2\n      pop\n      pop\n      jump\t// out\n        /* \"#utility.yul\":12590:12885   */\n    tag_153:\n        /* \"#utility.yul\":12666:12670   */\n      0x00\n        /* \"#utility.yul\":12812:12841   */\n      tag_304\n        /* \"#utility.yul\":12837:12840   */\n      dup4\n        /* \"#utility.yul\":12831:12835   */\n      dup4\n        /* \"#utility.yul\":12812:12841   */\n      tag_152\n      jump\t// in\n    tag_304:\n        /* \"#utility.yul\":12804:12841   */\n      swap2\n      pop\n        /* \"#utility.yul\":12874:12877   */\n      dup3\n        /* \"#utility.yul\":12871:12872   */\n      0x02\n        /* \"#utility.yul\":12867:12878   */\n      mul\n        /* \"#utility.yul\":12861:12865   */\n      dup3\n        /* \"#utility.yul\":12858:12879   */\n      or\n        /* \"#utility.yul\":12850:12879   */\n      swap1\n      pop\n        /* \"#utility.yul\":12590:12885   */\n      swap3\n      swap2\n      pop\n      pop\n      jump\t// out\n        /* \"#utility.yul\":12890:14285   */\n    tag_94:\n        /* \"#utility.yul\":13007:13044   */\n      tag_306\n        /* \"#utility.yul\":13040:13043   */\n      dup3\n        /* \"#utility.yul\":13007:13044   */\n      tag_120\n      jump\t// in\n    tag_306:\n        /* \"#utility.yul\":13109:13127   */\n      0xffffffffffffffff\n        /* \"#utility.yul\":13101:13107   */\n      dup2\n        /* \"#utility.yul\":13098:13128   */\n      gt\n        /* \"#utility.yul\":13095:13151   */\n      iszero\n      tag_307\n      jumpi\n        /* \"#utility.yul\":13131:13149   */\n      tag_308\n      tag_129\n      jump\t// in\n    tag_308:\n        /* \"#utility.yul\":13095:13151   */\n    tag_307:\n        /* \"#utility.yul\":13175:13213   */\n      tag_309\n        /* \"#utility.yul\":13207:13211   */\n      dup3\n        /* \"#utility.yul\":13201:13212   */\n      sload\n        /* \"#utility.yul\":13175:13213   */\n      tag_84\n      jump\t// in\n    tag_309:\n        /* \"#utility.yul\":13260:13327   */\n      tag_310\n        /* \"#utility.yul\":13320:13326   */\n      dup3\n        /* \"#utility.yul\":13312:13318   */\n      dup3\n        /* \"#utility.yul\":13306:13310   */\n      dup6\n        /* \"#utility.yul\":13260:13327   */\n      tag_150\n      jump\t// in\n    tag_310:\n        /* \"#utility.yul\":13354:13355   */\n      0x00\n        /* \"#utility.yul\":13378:13382   */\n      0x20\n        /* \"#utility.yul\":13365:13382   */\n      swap1\n      pop\n        /* \"#utility.yul\":13410:13412   */\n      0x1f\n        /* \"#utility.yul\":13402:13408   */\n      dup4\n        /* \"#utility.yul\":13399:13413   */\n      gt\n        /* \"#utility.yul\":13427:13428   */\n      0x01\n        /* \"#utility.yul\":13422:14040   */\n      dup2\n      eq\n      tag_312\n      jumpi\n        /* \"#utility.yul\":14084:14085   */\n      0x00\n        /* \"#utility.yul\":14101:14107   */\n      dup5\n        /* \"#utility.yul\":14098:14175   */\n      iszero\n      tag_313\n      jumpi\n        /* \"#utility.yul\":14150:14159   */\n      dup3\n        /* \"#utility.yul\":14145:14148   */\n      dup8\n        /* \"#utility.yul\":14141:14160   */\n      add\n        /* \"#utility.yul\":14135:14161   */\n      mload\n        /* \"#utility.yul\":14126:14161   */\n      swap1\n      pop\n        /* \"#utility.yul\":14098:14175   */\n    tag_313:\n        /* \"#utility.yul\":14201:14268   */\n      tag_314\n        /* \"#utility.yul\":14261:14267   */\n      dup6\n        /* \"#utility.yul\":14254:14259   */\n      dup3\n        /* \"#utility.yul\":14201:14268   */\n      tag_153\n      jump\t// in\n    tag_314:\n        /* \"#utility.yul\":14195:14199   */\n      dup7\n        /* \"#utility.yul\":14188:14269   */\n      sstore\n        /* \"#utility.yul\":14057:14279   */\n      pop\n        /* \"#utility.yul\":13392:14279   */\n      jump(tag_311)\n        /* \"#utility.yul\":13422:14040   */\n    tag_312:\n        /* \"#utility.yul\":13474:13478   */\n      0x1f\n        /* \"#utility.yul\":13470:13479   */\n      not\n        /* \"#utility.yul\":13462:13468   */\n      dup5\n        /* \"#utility.yul\":13458:13480   */\n      and\n        /* \"#utility.yul\":13508:13545   */\n      tag_315\n        /* \"#utility.yul\":13540:13544   */\n      dup7\n        /* \"#utility.yul\":13508:13545   */\n      tag_139\n      jump\t// in\n    tag_315:\n        /* \"#utility.yul\":13567:13568   */\n      0x00\n        /* \"#utility.yul\":13581:13789   */\n    tag_316:\n        /* \"#utility.yul\":13595:13602   */\n      dup3\n        /* \"#utility.yul\":13592:13593   */\n      dup2\n        /* \"#utility.yul\":13589:13603   */\n      lt\n        /* \"#utility.yul\":13581:13789   */\n      iszero\n      tag_318\n      jumpi\n        /* \"#utility.yul\":13674:13683   */\n      dup5\n        /* \"#utility.yul\":13669:13672   */\n      dup10\n        /* \"#utility.yul\":13665:13684   */\n      add\n        /* \"#utility.yul\":13659:13685   */\n      mload\n        /* \"#utility.yul\":13651:13657   */\n      dup3\n        /* \"#utility.yul\":13644:13686   */\n      sstore\n        /* \"#utility.yul\":13725:13726   */\n      0x01\n        /* \"#utility.yul\":13717:13723   */\n      dup3\n        /* \"#utility.yul\":13713:13727   */\n      add\n        /* \"#utility.yul\":13703:13727   */\n      swap2\n      pop\n        /* \"#utility.yul\":13772:13774   */\n      0x20\n        /* \"#utility.yul\":13761:13770   */\n      dup6\n        /* \"#utility.yul\":13757:13775   */\n      add\n        /* \"#utility.yul\":13744:13775   */\n      swap5\n      pop\n        /* \"#utility.yul\":13618:13622   */\n      0x20\n        /* \"#utility.yul\":13615:13616   */\n      dup2\n        /* \"#utility.yul\":13611:13623   */\n      add\n        /* \"#utility.yul\":13606:13623   */\n      swap1\n      pop\n        /* \"#utility.yul\":13581:13789   */\n      jump(tag_316)\n    tag_318:\n        /* \"#utility.yul\":13817:13823   */\n      dup7\n        /* \"#utility.yul\":13808:13815   */\n      dup4\n        /* \"#utility.yul\":13805:13824   */\n      lt\n        /* \"#utility.yul\":13802:13981   */\n      iszero\n      tag_319\n      jumpi\n        /* \"#utility.yul\":13875:13884   */\n      dup5\n        /* \"#utility.yul\":13870:13873   */\n      dup10\n        /* \"#utility.yul\":13866:13885   */\n      add\n        /* \"#utility.yul\":13860:13886   */\n      mload\n        /* \"#utility.yul\":13918:13966   */\n      tag_320\n        /* \"#utility.yul\":13960:13964   */\n      0x1f\n        /* \"#utility.yul\":13952:13958   */\n      dup10\n        /* \"#utility.yul\":13948:13965   */\n      and\n        /* \"#utility.yul\":13937:13946   */\n      dup3\n        /* \"#utility.yul\":13918:13966   */\n      tag_152\n      jump\t// in\n    tag_320:\n        /* \"#utility.yul\":13910:13916   */\n      dup4\n        /* \"#utility.yul\":13903:13967   */\n      sstore\n        /* \"#utility.yul\":13825:13981   */\n      pop\n        /* \"#utility.yul\":13802:13981   */\n    tag_319:\n        /* \"#utility.yul\":14027:14028   */\n      0x01\n        /* \"#utility.yul\":14023:14024   */\n      0x02\n        /* \"#utility.yul\":14015:14021   */\n      dup9\n        /* \"#utility.yul\":14011:14025   */\n      mul\n        /* \"#utility.yul\":14007:14029   */\n      add\n        /* \"#utility.yul\":14001:14005   */\n      dup9\n        /* \"#utility.yul\":13994:14030   */\n      sstore\n        /* \"#utility.yul\":13429:14040   */\n      pop\n      pop\n      pop\n        /* \"#utility.yul\":13392:14279   */\n    tag_311:\n      pop\n        /* \"#utility.yul\":12982:14285   */\n      pop\n      pop\n      pop\n        /* \"#utility.yul\":12890:14285   */\n      pop\n      pop\n      jump\t// out\n        /* \"#utility.yul\":14291:14524   */\n    tag_98:\n        /* \"#utility.yul\":14330:14333   */\n      0x00\n        /* \"#utility.yul\":14353:14377   */\n      tag_322\n        /* \"#utility.yul\":14371:14376   */\n      dup3\n        /* \"#utility.yul\":14353:14377   */\n      tag_109\n      jump\t// in\n    tag_322:\n        /* \"#utility.yul\":14344:14377   */\n      swap2\n      pop\n        /* \"#utility.yul\":14399:14465   */\n      0xffffffffffffffffffffffffffffffffffffffffffffffffffffffffffffffff\n        /* \"#utility.yul\":14392:14397   */\n      dup3\n        /* \"#utility.yul\":14389:14466   */\n      sub\n        /* \"#utility.yul\":14386:14489   */\n      tag_323\n      jumpi\n        /* \"#utility.yul\":14469:14487   */\n      tag_324\n      tag_137\n      jump\t// in\n    tag_324:\n        /* \"#utility.yul\":14386:14489   */\n    tag_323:\n        /* \"#utility.yul\":14516:14517   */\n      0x01\n        /* \"#utility.yul\":14509:14514   */\n      dup3\n        /* \"#utility.yul\":14505:14518   */\n      add\n        /* \"#utility.yul\":14498:14518   */\n      swap1\n      pop\n        /* \"#utility.yul\":14291:14524   */\n      swap2\n      swap1\n      pop\n      jump\t// out\n\n    auxdata: 0xa264697066735822122044d6e9ba06fd5e6720201dc268391487b79c4750e3a9eac99990ae40ac79adf964736f6c634300080f0033\n}\n","bytecode":{"linkReferences":{},"object":"60806040523480156200001157600080fd5b506040516200127838038062001278833981810160405281019062000037919062000134565b80600160006101000a81548173ffffffffffffffffffffffffffffffffffffffff021916908373ffffffffffffffffffffffffffffffffffffffff16021790555081600281905550600060038190555050506200017b565b600080fd5b6000819050919050565b620000a98162000094565b8114620000b557600080fd5b50565b600081519050620000c9816200009e565b92915050565b600073ffffffffffffffffffffffffffffffffffffffff82169050919050565b6000620000fc82620000cf565b9050919050565b6200010e81620000ef565b81146200011a57600080fd5b50565b6000815190506200012e8162000103565b92915050565b600080604083850312156200014e576200014d6200008f565b5b60006200015e85828601620000b8565b925050602062000171858286016200011d565b9150509250929050565b6110ed806200018b6000396000f3fe60806040526004361061009c5760003560e01c8063754d4ca411610064578063754d4ca41461018c5780638a9cfd55146101cd578063a7f33715146101f6578063b64bdf9314610221578063d7d1bbdb1461022b578063e9f146a3146102545761009c565b806303441006146100a15780633410452a146100ca57806334b66460146100f5578063481c6a75146101325780636d1e09031461015d575b600080fd5b3480156100ad57600080fd5b506100c860048036038101906100c39190610886565b61027f565b005b3480156100d657600080fd5b506100df6103c7565b6040516100ec91906108c2565b60405180910390f35b34801561010157600080fd5b5061011c6004803603810190610117919061093b565b6103d3565b6040516101299190610983565b60405180910390f35b34801561013e57600080fd5b506101476103f3565b60405161015491906109ad565b60405180910390f35b34801561016957600080fd5b50610172610419565b6040516101839594939291906109c8565b60405180910390f35b34801561019857600080fd5b506101b360048036038101906101ae9190610886565b610462565b6040516101c4959493929190610ad5565b60405180910390f35b3480156101d957600080fd5b506101f460048036038101906101ef9190610c64565b61055d565b005b34801561020257600080fd5b5061020b610665565b60405161021891906108c2565b60405180910390f35b61022961066b565b005b34801561023757600080fd5b50610252600480360381019061024d9190610886565b6106eb565b005b34801561026057600080fd5b50610269610836565b60405161027691906108c2565b60405180910390f35b600160009054906101000a900473ffffffffffffffffffffffffffffffffffffffff1673ffffffffffffffffffffffffffffffffffffffff163373ffffffffffffffffffffffffffffffffffffffff16146102d957600080fd5b60008082815481106102ee576102ed610cd3565b5b90600052602060002090600502019050600260035461030d9190610d60565b816003015411801561032e57508060020160149054906101000a900460ff16155b61033757600080fd5b8060020160009054906101000a900473ffffffffffffffffffffffffffffffffffffffff1673ffffffffffffffffffffffffffffffffffffffff166108fc82600101549081150290604051600060405180830381858888f193505050501580156103a5573d6000803e3d6000fd5b5060018160020160146101000a81548160ff0219169083151502179055505050565b60008080549050905090565b60046020528060005260406000206000915054906101000a900460ff1681565b600160009054906101000a900473ffffffffffffffffffffffffffffffffffffffff1681565b600080600080600060025447600080549050600354600160009054906101000a900473ffffffffffffffffffffffffffffffffffffffff16945094509450945094509091929394565b6000818154811061047257600080fd5b906000526020600020906005020160009150905080600001805461049590610dc0565b80601f01602080910402602001604051908101604052809291908181526020018280546104c190610dc0565b801561050e5780601f106104e35761010080835404028352916020019161050e565b820191906000526020600020905b8154815290600101906020018083116104f157829003601f168201915b5050505050908060010154908060020160009054906101000a900473ffffffffffffffffffffffffffffffffffffffff16908060020160149054906101000a900460ff16908060030154905085565b600160009054906101000a900473ffffffffffffffffffffffffffffffffffffffff1673ffffffffffffffffffffffffffffffffffffffff163373ffffffffffffffffffffffffffffffffffffffff16146105b757600080fd5b6000806001816001815401808255809150500390600052602060002090600502019050838160000190816105eb9190610f9d565b50828160010181905550818160020160006101000a81548173ffffffffffffffffffffffffffffffffffffffff021916908373ffffffffffffffffffffffffffffffffffffffff16021790555060008160020160146101000a81548160ff0219169083151502179055506000816003018190555050505050565b60025481565b600254341161067957600080fd5b6001600460003373ffffffffffffffffffffffffffffffffffffffff1673ffffffffffffffffffffffffffffffffffffffff16815260200190815260200160002060006101000a81548160ff021916908315150217905550600360008154809291906106e49061106f565b9190505550565b6000808281548110610700576106ff610cd3565b5b90600052602060002090600502019050600460003373ffffffffffffffffffffffffffffffffffffffff1673ffffffffffffffffffffffffffffffffffffffff16815260200190815260200160002060009054906101000a900460ff1680156107b557508060040160003373ffffffffffffffffffffffffffffffffffffffff1673ffffffffffffffffffffffffffffffffffffffff16815260200190815260200160002060009054906101000a900460ff16155b6107be57600080fd5b60018160040160003373ffffffffffffffffffffffffffffffffffffffff1673ffffffffffffffffffffffffffffffffffffffff16815260200190815260200160002060006101000a81548160ff02191690831515021790555080600301600081548092919061082d9061106f565b91905055505050565b60035481565b6000604051905090565b600080fd5b600080fd5b6000819050919050565b61086381610850565b811461086e57600080fd5b50565b6000813590506108808161085a565b92915050565b60006020828403121561089c5761089b610846565b5b60006108aa84828501610871565b91505092915050565b6108bc81610850565b82525050565b60006020820190506108d760008301846108b3565b92915050565b600073ffffffffffffffffffffffffffffffffffffffff82169050919050565b6000610908826108dd565b9050919050565b610918816108fd565b811461092357600080fd5b50565b6000813590506109358161090f565b92915050565b60006020828403121561095157610950610846565b5b600061095f84828501610926565b91505092915050565b60008115159050919050565b61097d81610968565b82525050565b60006020820190506109986000830184610974565b92915050565b6109a7816108fd565b82525050565b60006020820190506109c2600083018461099e565b92915050565b600060a0820190506109dd60008301886108b3565b6109ea60208301876108b3565b6109f760408301866108b3565b610a0460608301856108b3565b610a11608083018461099e565b9695505050505050565b600081519050919050565b600082825260208201905092915050565b60005b83811015610a55578082015181840152602081019050610a3a565b83811115610a64576000848401525b50505050565b6000601f19601f8301169050919050565b6000610a8682610a1b565b610a908185610a26565b9350610aa0818560208601610a37565b610aa981610a6a565b840191505092915050565b6000610abf826108dd565b9050919050565b610acf81610ab4565b82525050565b600060a0820190508181036000830152610aef8188610a7b565b9050610afe60208301876108b3565b610b0b6040830186610ac6565b610b186060830185610974565b610b2560808301846108b3565b9695505050505050565b600080fd5b600080fd5b7f4e487b7100000000000000000000000000000000000000000000000000000000600052604160045260246000fd5b610b7182610a6a565b810181811067ffffffffffffffff82111715610b9057610b8f610b39565b5b80604052505050565b6000610ba361083c565b9050610baf8282610b68565b919050565b600067ffffffffffffffff821115610bcf57610bce610b39565b5b610bd882610a6a565b9050602081019050919050565b82818337600083830152505050565b6000610c07610c0284610bb4565b610b99565b905082815260208101848484011115610c2357610c22610b34565b5b610c2e848285610be5565b509392505050565b600082601f830112610c4b57610c4a610b2f565b5b8135610c5b848260208601610bf4565b91505092915050565b600080600060608486031215610c7d57610c7c610846565b5b600084013567ffffffffffffffff811115610c9b57610c9a61084b565b5b610ca786828701610c36565b9350506020610cb886828701610871565b9250506040610cc986828701610926565b9150509250925092565b7f4e487b7100000000000000000000000000000000000000000000000000000000600052603260045260246000fd5b7f4e487b7100000000000000000000000000000000000000000000000000000000600052601260045260246000fd5b7f4e487b7100000000000000000000000000000000000000000000000000000000600052601160045260246000fd5b6000610d6b82610850565b9150610d7683610850565b925082610d8657610d85610d02565b5b828204905092915050565b7f4e487b7100000000000000000000000000000000000000000000000000000000600052602260045260246000fd5b60006002820490506001821680610dd857607f821691505b602082108103610deb57610dea610d91565b5b50919050565b60008190508160005260206000209050919050565b60006020601f8301049050919050565b600082821b905092915050565b600060088302610e537fffffffffffffffffffffffffffffffffffffffffffffffffffffffffffffffff82610e16565b610e5d8683610e16565b95508019841693508086168417925050509392505050565b6000819050919050565b6000610e9a610e95610e9084610850565b610e75565b610850565b9050919050565b6000819050919050565b610eb483610e7f565b610ec8610ec082610ea1565b848454610e23565b825550505050565b600090565b610edd610ed0565b610ee8818484610eab565b505050565b5b81811015610f0c57610f01600082610ed5565b600181019050610eee565b5050565b601f821115610f5157610f2281610df1565b610f2b84610e06565b81016020851015610f3a578190505b610f4e610f4685610e06565b830182610eed565b50505b505050565b600082821c905092915050565b6000610f7460001984600802610f56565b1980831691505092915050565b6000610f8d8383610f63565b9150826002028217905092915050565b610fa682610a1b565b67ffffffffffffffff811115610fbf57610fbe610b39565b5b610fc98254610dc0565b610fd4828285610f10565b600060209050601f8311600181146110075760008415610ff5578287015190505b610fff8582610f81565b865550611067565b601f19841661101586610df1565b60005b8281101561103d57848901518255600182019150602085019450602081019050611018565b8683101561105a5784890151611056601f891682610f63565b8355505b6001600288020188555050505b505050505050565b600061107a82610850565b91507fffffffffffffffffffffffffffffffffffffffffffffffffffffffffffffffff82036110ac576110ab610d31565b5b60018201905091905056fea264697066735822122044d6e9ba06fd5e6720201dc268391487b79c4750e3a9eac99990ae40ac79adf964736f6c634300080f0033","opcodes":"PUSH1 0x80 PUSH1 0x40 MSTORE CALLVALUE DUP1 ISZERO PUSH3 0x11 JUMPI PUSH1 0x0 DUP1 REVERT JUMPDEST POP PUSH1 0x40 MLOAD PUSH3 0x1278 CODESIZE SUB DUP1 PUSH3 0x1278 DUP4 CODECOPY DUP2 DUP2 ADD PUSH1 0x40 MSTORE DUP2 ADD SWAP1 PUSH3 0x37 SWAP2 SWAP1 PUSH3 0x134 JUMP JUMPDEST DUP1 PUSH1 0x1 PUSH1 0x0 PUSH2 0x100 EXP DUP2 SLOAD DUP2 PUSH20 0xFFFFFFFFFFFFFFFFFFFFFFFFFFFFFFFFFFFFFFFF MUL NOT AND SWAP1 DUP4 PUSH20 0xFFFFFFFFFFFFFFFFFFFFFFFFFFFFFFFFFFFFFFFF AND MUL OR SWAP1 SSTORE POP DUP2 PUSH1 0x2 DUP2 SWAP1 SSTORE POP PUSH1 0x0 PUSH1 0x3 DUP2 SWAP1 SSTORE POP POP POP PUSH3 0x17B JUMP JUMPDEST PUSH1 0x0 DUP1 REVERT JUMPDEST PUSH1 0x0 DUP2 SWAP1 POP SWAP2 SWAP1 POP JUMP JUMPDEST PUSH3 0xA9 DUP2 PUSH3 0x94 JUMP JUMPDEST DUP2 EQ PUSH3 0xB5 JUMPI PUSH1 0x0 DUP1 REVERT JUMPDEST POP JUMP JUMPDEST PUSH1 0x0 DUP2 MLOAD SWAP1 POP PUSH3 0xC9 DUP2 PUSH3 0x9E JUMP JUMPDEST SWAP3 SWAP2 POP POP JUMP JUMPDEST PUSH1 0x0 PUSH20 0xFFFFFFFFFFFFFFFFFFFFFFFFFFFFFFFFFFFFFFFF DUP3 AND SWAP1 POP SWAP2 SWAP1 POP JUMP JUMPDEST PUSH1 0x0 PUSH3 0xFC DUP3 PUSH3 0xCF JUMP JUMPDEST SWAP1 POP SWAP2 SWAP1 POP JUMP JUMPDEST PUSH3 0x10E DUP2 PUSH3 0xEF JUMP JUMPDEST DUP2 EQ PUSH3 0x11A JUMPI PUSH1 0x0 DUP1 REVERT JUMPDEST POP JUMP JUMPDEST PUSH1 0x0 DUP2 MLOAD SWAP1 POP PUSH3 0x12E DUP2 PUSH3 0x103 JUMP JUMPDEST SWAP3 SWAP2 POP POP JUMP JUMPDEST PUSH1 0x0 DUP1 PUSH1 0x40 DUP4 DUP6 SUB SLT ISZERO PUSH3 0x14E JUMPI PUSH3 0x14D PUSH3 0x8F JUMP JUMPDEST JUMPDEST PUSH1 0x0 PUSH3 0x15E DUP6 DUP3 DUP7 ADD PUSH3 0xB8 JUMP JUMPDEST SWAP3 POP POP PUSH1 0x20 PUSH3 0x171 DUP6 DUP3 DUP7 ADD PUSH3 0x11D JUMP JUMPDEST SWAP2 POP POP SWAP3 POP SWAP3 SWAP1 POP JUMP JUMPDEST PUSH2 0x10ED DUP1 PUSH3 0x18B PUSH1 0x0 CODECOPY PUSH1 0x0 RETURN INVALID PUSH1 0x80 PUSH1 0x40 MSTORE PUSH1 0x4 CALLDATASIZE LT PUSH2 0x9C JUMPI PUSH1 0x0 CALLDATALOAD PUSH1 0xE0 SHR DUP1 PUSH4 0x754D4CA4 GT PUSH2 0x64 JUMPI DUP1 PUSH4 0x754D4CA4 EQ PUSH2 0x18C JUMPI DUP1 PUSH4 0x8A9CFD55 EQ PUSH2 0x1CD JUMPI DUP1 PUSH4 0xA7F33715 EQ PUSH2 0x1F6 JUMPI DUP1 PUSH4 0xB64BDF93 EQ PUSH2 0x221 JUMPI DUP1 PUSH4 0xD7D1BBDB EQ PUSH2 0x22B JUMPI DUP1 PUSH4 0xE9F146A3 EQ PUSH2 0x254 JUMPI PUSH2 0x9C JUMP JUMPDEST DUP1 PUSH4 0x3441006 EQ PUSH2 0xA1 JUMPI DUP1 PUSH4 0x3410452A EQ PUSH2 0xCA JUMPI DUP1 PUSH4 0x34B66460 EQ PUSH2 0xF5 JUMPI DUP1 PUSH4 0x481C6A75 EQ PUSH2 0x132 JUMPI DUP1 PUSH4 0x6D1E0903 EQ PUSH2 0x15D JUMPI JUMPDEST PUSH1 0x0 DUP1 REVERT JUMPDEST CALLVALUE DUP1 ISZERO PUSH2 0xAD JUMPI PUSH1 0x0 DUP1 REVERT JUMPDEST POP PUSH2 0xC8 PUSH1 0x4 DUP1 CALLDATASIZE SUB DUP2 ADD SWAP1 PUSH2 0xC3 SWAP2 SWAP1 PUSH2 0x886 JUMP JUMPDEST PUSH2 0x27F JUMP JUMPDEST STOP JUMPDEST CALLVALUE DUP1 ISZERO PUSH2 0xD6 JUMPI PUSH1 0x0 DUP1 REVERT JUMPDEST POP PUSH2 0xDF PUSH2 0x3C7 JUMP JUMPDEST PUSH1 0x40 MLOAD PUSH2 0xEC SWAP2 SWAP1 PUSH2 0x8C2 JUMP JUMPDEST PUSH1 0x40 MLOAD DUP1 SWAP2 SUB SWAP1 RETURN JUMPDEST CALLVALUE DUP1 ISZERO PUSH2 0x101 JUMPI PUSH1 0x0 DUP1 REVERT JUMPDEST POP PUSH2 0x11C PUSH1 0x4 DUP1 CALLDATASIZE SUB DUP2 ADD SWAP1 PUSH2 0x117 SWAP2 SWAP1 PUSH2 0x93B JUMP JUMPDEST PUSH2 0x3D3 JUMP JUMPDEST PUSH1 0x40 MLOAD PUSH2 0x129 SWAP2 SWAP1 PUSH2 0x983 JUMP JUMPDEST PUSH1 0x40 MLOAD DUP1 SWAP2 SUB SWAP1 RETURN JUMPDEST CALLVALUE DUP1 ISZERO PUSH2 0x13E JUMPI PUSH1 0x0 DUP1 REVERT JUMPDEST POP PUSH2 0x147 PUSH2 0x3F3 JUMP JUMPDEST PUSH1 0x40 MLOAD PUSH2 0x154 SWAP2 SWAP1 PUSH2 0x9AD JUMP JUMPDEST PUSH1 0x40 MLOAD DUP1 SWAP2 SUB SWAP1 RETURN JUMPDEST CALLVALUE DUP1 ISZERO PUSH2 0x169 JUMPI PUSH1 0x0 DUP1 REVERT JUMPDEST POP PUSH2 0x172 PUSH2 0x419 JUMP JUMPDEST PUSH1 0x40 MLOAD PUSH2 0x183 SWAP6 SWAP5 SWAP4 SWAP3 SWAP2 SWAP1 PUSH2 0x9C8 JUMP JUMPDEST PUSH1 0x40 MLOAD DUP1 SWAP2 SUB SWAP1 RETURN JUMPDEST CALLVALUE DUP1 ISZERO PUSH2 0x198 JUMPI PUSH1 0x0 DUP1 REVERT JUMPDEST POP PUSH2 0x1B3 PUSH1 0x4 DUP1 CALLDATASIZE SUB DUP2 ADD SWAP1 PUSH2 0x1AE SWAP2 SWAP1 PUSH2 0x886 JUMP JUMPDEST PUSH2 0x462 JUMP JUMPDEST PUSH1 0x40 MLOAD PUSH2 0x1C4 SWAP6 SWAP5 SWAP4 SWAP3 SWAP2 SWAP1 PUSH2 0xAD5 JUMP JUMPDEST PUSH1 0x40 MLOAD DUP1 SWAP2 SUB SWAP1 RETURN JUMPDEST CALLVALUE DUP1 ISZERO PUSH2 0x1D9 JUMPI PUSH1 0x0 DUP1 REVERT JUMPDEST POP PUSH2 0x1F4 PUSH1 0x4 DUP1 CALLDATASIZE SUB DUP2 ADD SWAP1 PUSH2 0x1EF SWAP2 SWAP1 PUSH2 0xC64 JUMP JUMPDEST PUSH2 0x55D JUMP JUMPDEST STOP JUMPDEST CALLVALUE DUP1 ISZERO PUSH2 0x202 JUMPI PUSH1 0x0 DUP1 REVERT JUMPDEST POP PUSH2 0x20B PUSH2 0x665 JUMP JUMPDEST PUSH1 0x40 MLOAD PUSH2 0x218 SWAP2 SWAP1 PUSH2 0x8C2 JUMP JUMPDEST PUSH1 0x40 MLOAD DUP1 SWAP2 SUB SWAP1 RETURN JUMPDEST PUSH2 0x229 PUSH2 0x66B JUMP JUMPDEST STOP JUMPDEST CALLVALUE DUP1 ISZERO PUSH2 0x237 JUMPI PUSH1 0x0 DUP1 REVERT JUMPDEST POP PUSH2 0x252 PUSH1 0x4 DUP1 CALLDATASIZE SUB DUP2 ADD SWAP1 PUSH2 0x24D SWAP2 SWAP1 PUSH2 0x886 JUMP JUMPDEST PUSH2 0x6EB JUMP JUMPDEST STOP JUMPDEST CALLVALUE DUP1 ISZERO PUSH2 0x260 JUMPI PUSH1 0x0 DUP1 REVERT JUMPDEST POP PUSH2 0x269 PUSH2 0x836 JUMP JUMPDEST PUSH1 0x40 MLOAD PUSH2 0x276 SWAP2 SWAP1 PUSH2 0x8C2 JUMP JUMPDEST PUSH1 0x40 MLOAD DUP1 SWAP2 SUB SWAP1 RETURN JUMPDEST PUSH1 0x1 PUSH1 0x0 SWAP1 SLOAD SWAP1 PUSH2 0x100 EXP SWAP1 DIV PUSH20 0xFFFFFFFFFFFFFFFFFFFFFFFFFFFFFFFFFFFFFFFF AND PUSH20 0xFFFFFFFFFFFFFFFFFFFFFFFFFFFFFFFFFFFFFFFF AND CALLER PUSH20 0xFFFFFFFFFFFFFFFFFFFFFFFFFFFFFFFFFFFFFFFF AND EQ PUSH2 0x2D9 JUMPI PUSH1 0x0 DUP1 REVERT JUMPDEST PUSH1 0x0 DUP1 DUP3 DUP2 SLOAD DUP2 LT PUSH2 0x2EE JUMPI PUSH2 0x2ED PUSH2 0xCD3 JUMP JUMPDEST JUMPDEST SWAP1 PUSH1 0x0 MSTORE PUSH1 0x20 PUSH1 0x0 KECCAK256 SWAP1 PUSH1 0x5 MUL ADD SWAP1 POP PUSH1 0x2 PUSH1 0x3 SLOAD PUSH2 0x30D SWAP2 SWAP1 PUSH2 0xD60 JUMP JUMPDEST DUP2 PUSH1 0x3 ADD SLOAD GT DUP1 ISZERO PUSH2 0x32E JUMPI POP DUP1 PUSH1 0x2 ADD PUSH1 0x14 SWAP1 SLOAD SWAP1 PUSH2 0x100 EXP SWAP1 DIV PUSH1 0xFF AND ISZERO JUMPDEST PUSH2 0x337 JUMPI PUSH1 0x0 DUP1 REVERT JUMPDEST DUP1 PUSH1 0x2 ADD PUSH1 0x0 SWAP1 SLOAD SWAP1 PUSH2 0x100 EXP SWAP1 DIV PUSH20 0xFFFFFFFFFFFFFFFFFFFFFFFFFFFFFFFFFFFFFFFF AND PUSH20 0xFFFFFFFFFFFFFFFFFFFFFFFFFFFFFFFFFFFFFFFF AND PUSH2 0x8FC DUP3 PUSH1 0x1 ADD SLOAD SWAP1 DUP2 ISZERO MUL SWAP1 PUSH1 0x40 MLOAD PUSH1 0x0 PUSH1 0x40 MLOAD DUP1 DUP4 SUB DUP2 DUP6 DUP9 DUP9 CALL SWAP4 POP POP POP POP ISZERO DUP1 ISZERO PUSH2 0x3A5 JUMPI RETURNDATASIZE PUSH1 0x0 DUP1 RETURNDATACOPY RETURNDATASIZE PUSH1 0x0 REVERT JUMPDEST POP PUSH1 0x1 DUP2 PUSH1 0x2 ADD PUSH1 0x14 PUSH2 0x100 EXP DUP2 SLOAD DUP2 PUSH1 0xFF MUL NOT AND SWAP1 DUP4 ISZERO ISZERO MUL OR SWAP1 SSTORE POP POP POP JUMP JUMPDEST PUSH1 0x0 DUP1 DUP1 SLOAD SWAP1 POP SWAP1 POP SWAP1 JUMP JUMPDEST PUSH1 0x4 PUSH1 0x20 MSTORE DUP1 PUSH1 0x0 MSTORE PUSH1 0x40 PUSH1 0x0 KECCAK256 PUSH1 0x0 SWAP2 POP SLOAD SWAP1 PUSH2 0x100 EXP SWAP1 DIV PUSH1 0xFF AND DUP2 JUMP JUMPDEST PUSH1 0x1 PUSH1 0x0 SWAP1 SLOAD SWAP1 PUSH2 0x100 EXP SWAP1 DIV PUSH20 0xFFFFFFFFFFFFFFFFFFFFFFFFFFFFFFFFFFFFFFFF AND DUP2 JUMP JUMPDEST PUSH1 0x0 DUP1 PUSH1 0x0 DUP1 PUSH1 0x0 PUSH1 0x2 SLOAD SELFBALANCE PUSH1 0x0 DUP1 SLOAD SWAP1 POP PUSH1 0x3 SLOAD PUSH1 0x1 PUSH1 0x0 SWAP1 SLOAD SWAP1 PUSH2 0x100 EXP SWAP1 DIV PUSH20 0xFFFFFFFFFFFFFFFFFFFFFFFFFFFFFFFFFFFFFFFF AND SWAP5 POP SWAP5 POP SWAP5 POP SWAP5 POP SWAP5 POP SWAP1 SWAP2 SWAP3 SWAP4 SWAP5 JUMP JUMPDEST PUSH1 0x0 DUP2 DUP2 SLOAD DUP2 LT PUSH2 0x472 JUMPI PUSH1 0x0 DUP1 REVERT JUMPDEST SWAP1 PUSH1 0x0 MSTORE PUSH1 0x20 PUSH1 0x0 KECCAK256 SWAP1 PUSH1 0x5 MUL ADD PUSH1 0x0 SWAP2 POP SWAP1 POP DUP1 PUSH1 0x0 ADD DUP1 SLOAD PUSH2 0x495 SWAP1 PUSH2 0xDC0 JUMP JUMPDEST DUP1 PUSH1 0x1F ADD PUSH1 0x20 DUP1 SWAP2 DIV MUL PUSH1 0x20 ADD PUSH1 0x40 MLOAD SWAP1 DUP2 ADD PUSH1 0x40 MSTORE DUP1 SWAP3 SWAP2 SWAP1 DUP2 DUP2 MSTORE PUSH1 0x20 ADD DUP3 DUP1 SLOAD PUSH2 0x4C1 SWAP1 PUSH2 0xDC0 JUMP JUMPDEST DUP1 ISZERO PUSH2 0x50E JUMPI DUP1 PUSH1 0x1F LT PUSH2 0x4E3 JUMPI PUSH2 0x100 DUP1 DUP4 SLOAD DIV MUL DUP4 MSTORE SWAP2 PUSH1 0x20 ADD SWAP2 PUSH2 0x50E JUMP JUMPDEST DUP3 ADD SWAP2 SWAP1 PUSH1 0x0 MSTORE PUSH1 0x20 PUSH1 0x0 KECCAK256 SWAP1 JUMPDEST DUP2 SLOAD DUP2 MSTORE SWAP1 PUSH1 0x1 ADD SWAP1 PUSH1 0x20 ADD DUP1 DUP4 GT PUSH2 0x4F1 JUMPI DUP3 SWAP1 SUB PUSH1 0x1F AND DUP3 ADD SWAP2 JUMPDEST POP POP POP POP POP SWAP1 DUP1 PUSH1 0x1 ADD SLOAD SWAP1 DUP1 PUSH1 0x2 ADD PUSH1 0x0 SWAP1 SLOAD SWAP1 PUSH2 0x100 EXP SWAP1 DIV PUSH20 0xFFFFFFFFFFFFFFFFFFFFFFFFFFFFFFFFFFFFFFFF AND SWAP1 DUP1 PUSH1 0x2 ADD PUSH1 0x14 SWAP1 SLOAD SWAP1 PUSH2 0x100 EXP SWAP1 DIV PUSH1 0xFF AND SWAP1 DUP1 PUSH1 0x3 ADD SLOAD SWAP1 POP DUP6 JUMP JUMPDEST PUSH1 0x1 PUSH1 0x0 SWAP1 SLOAD SWAP1 PUSH2 0x100 EXP SWAP1 DIV PUSH20 0xFFFFFFFFFFFFFFFFFFFFFFFFFFFFFFFFFFFFFFFF AND PUSH20 0xFFFFFFFFFFFFFFFFFFFFFFFFFFFFFFFFFFFFFFFF AND CALLER PUSH20 0xFFFFFFFFFFFFFFFFFFFFFFFFFFFFFFFFFFFFFFFF AND EQ PUSH2 0x5B7 JUMPI PUSH1 0x0 DUP1 REVERT JUMPDEST PUSH1 0x0 DUP1 PUSH1 0x1 DUP2 PUSH1 0x1 DUP2 SLOAD ADD DUP1 DUP3 SSTORE DUP1 SWAP2 POP POP SUB SWAP1 PUSH1 0x0 MSTORE PUSH1 0x20 PUSH1 0x0 KECCAK256 SWAP1 PUSH1 0x5 MUL ADD SWAP1 POP DUP4 DUP2 PUSH1 0x0 ADD SWAP1 DUP2 PUSH2 0x5EB SWAP2 SWAP1 PUSH2 0xF9D JUMP JUMPDEST POP DUP3 DUP2 PUSH1 0x1 ADD DUP2 SWAP1 SSTORE POP DUP2 DUP2 PUSH1 0x2 ADD PUSH1 0x0 PUSH2 0x100 EXP DUP2 SLOAD DUP2 PUSH20 0xFFFFFFFFFFFFFFFFFFFFFFFFFFFFFFFFFFFFFFFF MUL NOT AND SWAP1 DUP4 PUSH20 0xFFFFFFFFFFFFFFFFFFFFFFFFFFFFFFFFFFFFFFFF AND MUL OR SWAP1 SSTORE POP PUSH1 0x0 DUP2 PUSH1 0x2 ADD PUSH1 0x14 PUSH2 0x100 EXP DUP2 SLOAD DUP2 PUSH1 0xFF MUL NOT AND SWAP1 DUP4 ISZERO ISZERO MUL OR SWAP1 SSTORE POP PUSH1 0x0 DUP2 PUSH1 0x3 ADD DUP2 SWAP1 SSTORE POP POP POP POP POP JUMP JUMPDEST PUSH1 0x2 SLOAD DUP2 JUMP JUMPDEST PUSH1 0x2 SLOAD CALLVALUE GT PUSH2 0x679 JUMPI PUSH1 0x0 DUP1 REVERT JUMPDEST PUSH1 0x1 PUSH1 0x4 PUSH1 0x0 CALLER PUSH20 0xFFFFFFFFFFFFFFFFFFFFFFFFFFFFFFFFFFFFFFFF AND PUSH20 0xFFFFFFFFFFFFFFFFFFFFFFFFFFFFFFFFFFFFFFFF AND DUP2 MSTORE PUSH1 0x20 ADD SWAP1 DUP2 MSTORE PUSH1 0x20 ADD PUSH1 0x0 KECCAK256 PUSH1 0x0 PUSH2 0x100 EXP DUP2 SLOAD DUP2 PUSH1 0xFF MUL NOT AND SWAP1 DUP4 ISZERO ISZERO MUL OR SWAP1 SSTORE POP PUSH1 0x3 PUSH1 0x0 DUP2 SLOAD DUP1 SWAP3 SWAP2 SWAP1 PUSH2 0x6E4 SWAP1 PUSH2 0x106F JUMP JUMPDEST SWAP2 SWAP1 POP SSTORE POP JUMP JUMPDEST PUSH1 0x0 DUP1 DUP3 DUP2 SLOAD DUP2 LT PUSH2 0x700 JUMPI PUSH2 0x6FF PUSH2 0xCD3 JUMP JUMPDEST JUMPDEST SWAP1 PUSH1 0x0 MSTORE PUSH1 0x20 PUSH1 0x0 KECCAK256 SWAP1 PUSH1 0x5 MUL ADD SWAP1 POP PUSH1 0x4 PUSH1 0x0 CALLER PUSH20 0xFFFFFFFFFFFFFFFFFFFFFFFFFFFFFFFFFFFFFFFF AND PUSH20 0xFFFFFFFFFFFFFFFFFFFFFFFFFFFFFFFFFFFFFFFF AND DUP2 MSTORE PUSH1 0x20 ADD SWAP1 DUP2 MSTORE PUSH1 0x20 ADD PUSH1 0x0 KECCAK256 PUSH1 0x0 SWAP1 SLOAD SWAP1 PUSH2 0x100 EXP SWAP1 DIV PUSH1 0xFF AND DUP1 ISZERO PUSH2 0x7B5 JUMPI POP DUP1 PUSH1 0x4 ADD PUSH1 0x0 CALLER PUSH20 0xFFFFFFFFFFFFFFFFFFFFFFFFFFFFFFFFFFFFFFFF AND PUSH20 0xFFFFFFFFFFFFFFFFFFFFFFFFFFFFFFFFFFFFFFFF AND DUP2 MSTORE PUSH1 0x20 ADD SWAP1 DUP2 MSTORE PUSH1 0x20 ADD PUSH1 0x0 KECCAK256 PUSH1 0x0 SWAP1 SLOAD SWAP1 PUSH2 0x100 EXP SWAP1 DIV PUSH1 0xFF AND ISZERO JUMPDEST PUSH2 0x7BE JUMPI PUSH1 0x0 DUP1 REVERT JUMPDEST PUSH1 0x1 DUP2 PUSH1 0x4 ADD PUSH1 0x0 CALLER PUSH20 0xFFFFFFFFFFFFFFFFFFFFFFFFFFFFFFFFFFFFFFFF AND PUSH20 0xFFFFFFFFFFFFFFFFFFFFFFFFFFFFFFFFFFFFFFFF AND DUP2 MSTORE PUSH1 0x20 ADD SWAP1 DUP2 MSTORE PUSH1 0x20 ADD PUSH1 0x0 KECCAK256 PUSH1 0x0 PUSH2 0x100 EXP DUP2 SLOAD DUP2 PUSH1 0xFF MUL NOT AND SWAP1 DUP4 ISZERO ISZERO MUL OR SWAP1 SSTORE POP DUP1 PUSH1 0x3 ADD PUSH1 0x0 DUP2 SLOAD DUP1 SWAP3 SWAP2 SWAP1 PUSH2 0x82D SWAP1 PUSH2 0x106F JUMP JUMPDEST SWAP2 SWAP1 POP SSTORE POP POP POP JUMP JUMPDEST PUSH1 0x3 SLOAD DUP2 JUMP JUMPDEST PUSH1 0x0 PUSH1 0x40 MLOAD SWAP1 POP SWAP1 JUMP JUMPDEST PUSH1 0x0 DUP1 REVERT JUMPDEST PUSH1 0x0 DUP1 REVERT JUMPDEST PUSH1 0x0 DUP2 SWAP1 POP SWAP2 SWAP1 POP JUMP JUMPDEST PUSH2 0x863 DUP2 PUSH2 0x850 JUMP JUMPDEST DUP2 EQ PUSH2 0x86E JUMPI PUSH1 0x0 DUP1 REVERT JUMPDEST POP JUMP JUMPDEST PUSH1 0x0 DUP2 CALLDATALOAD SWAP1 POP PUSH2 0x880 DUP2 PUSH2 0x85A JUMP JUMPDEST SWAP3 SWAP2 POP POP JUMP JUMPDEST PUSH1 0x0 PUSH1 0x20 DUP3 DUP5 SUB SLT ISZERO PUSH2 0x89C JUMPI PUSH2 0x89B PUSH2 0x846 JUMP JUMPDEST JUMPDEST PUSH1 0x0 PUSH2 0x8AA DUP5 DUP3 DUP6 ADD PUSH2 0x871 JUMP JUMPDEST SWAP2 POP POP SWAP3 SWAP2 POP POP JUMP JUMPDEST PUSH2 0x8BC DUP2 PUSH2 0x850 JUMP JUMPDEST DUP3 MSTORE POP POP JUMP JUMPDEST PUSH1 0x0 PUSH1 0x20 DUP3 ADD SWAP1 POP PUSH2 0x8D7 PUSH1 0x0 DUP4 ADD DUP5 PUSH2 0x8B3 JUMP JUMPDEST SWAP3 SWAP2 POP POP JUMP JUMPDEST PUSH1 0x0 PUSH20 0xFFFFFFFFFFFFFFFFFFFFFFFFFFFFFFFFFFFFFFFF DUP3 AND SWAP1 POP SWAP2 SWAP1 POP JUMP JUMPDEST PUSH1 0x0 PUSH2 0x908 DUP3 PUSH2 0x8DD JUMP JUMPDEST SWAP1 POP SWAP2 SWAP1 POP JUMP JUMPDEST PUSH2 0x918 DUP2 PUSH2 0x8FD JUMP JUMPDEST DUP2 EQ PUSH2 0x923 JUMPI PUSH1 0x0 DUP1 REVERT JUMPDEST POP JUMP JUMPDEST PUSH1 0x0 DUP2 CALLDATALOAD SWAP1 POP PUSH2 0x935 DUP2 PUSH2 0x90F JUMP JUMPDEST SWAP3 SWAP2 POP POP JUMP JUMPDEST PUSH1 0x0 PUSH1 0x20 DUP3 DUP5 SUB SLT ISZERO PUSH2 0x951 JUMPI PUSH2 0x950 PUSH2 0x846 JUMP JUMPDEST JUMPDEST PUSH1 0x0 PUSH2 0x95F DUP5 DUP3 DUP6 ADD PUSH2 0x926 JUMP JUMPDEST SWAP2 POP POP SWAP3 SWAP2 POP POP JUMP JUMPDEST PUSH1 0x0 DUP2 ISZERO ISZERO SWAP1 POP SWAP2 SWAP1 POP JUMP JUMPDEST PUSH2 0x97D DUP2 PUSH2 0x968 JUMP JUMPDEST DUP3 MSTORE POP POP JUMP JUMPDEST PUSH1 0x0 PUSH1 0x20 DUP3 ADD SWAP1 POP PUSH2 0x998 PUSH1 0x0 DUP4 ADD DUP5 PUSH2 0x974 JUMP JUMPDEST SWAP3 SWAP2 POP POP JUMP JUMPDEST PUSH2 0x9A7 DUP2 PUSH2 0x8FD JUMP JUMPDEST DUP3 MSTORE POP POP JUMP JUMPDEST PUSH1 0x0 PUSH1 0x20 DUP3 ADD SWAP1 POP PUSH2 0x9C2 PUSH1 0x0 DUP4 ADD DUP5 PUSH2 0x99E JUMP JUMPDEST SWAP3 SWAP2 POP POP JUMP JUMPDEST PUSH1 0x0 PUSH1 0xA0 DUP3 ADD SWAP1 POP PUSH2 0x9DD PUSH1 0x0 DUP4 ADD DUP9 PUSH2 0x8B3 JUMP JUMPDEST PUSH2 0x9EA PUSH1 0x20 DUP4 ADD DUP8 PUSH2 0x8B3 JUMP JUMPDEST PUSH2 0x9F7 PUSH1 0x40 DUP4 ADD DUP7 PUSH2 0x8B3 JUMP JUMPDEST PUSH2 0xA04 PUSH1 0x60 DUP4 ADD DUP6 PUSH2 0x8B3 JUMP JUMPDEST PUSH2 0xA11 PUSH1 0x80 DUP4 ADD DUP5 PUSH2 0x99E JUMP JUMPDEST SWAP7 SWAP6 POP POP POP POP POP POP JUMP JUMPDEST PUSH1 0x0 DUP2 MLOAD SWAP1 POP SWAP2 SWAP1 POP JUMP JUMPDEST PUSH1 0x0 DUP3 DUP3 MSTORE PUSH1 0x20 DUP3 ADD SWAP1 POP SWAP3 SWAP2 POP POP JUMP JUMPDEST PUSH1 0x0 JUMPDEST DUP4 DUP2 LT ISZERO PUSH2 0xA55 JUMPI DUP1 DUP3 ADD MLOAD DUP2 DUP5 ADD MSTORE PUSH1 0x20 DUP2 ADD SWAP1 POP PUSH2 0xA3A JUMP JUMPDEST DUP4 DUP2 GT ISZERO PUSH2 0xA64 JUMPI PUSH1 0x0 DUP5 DUP5 ADD MSTORE JUMPDEST POP POP POP POP JUMP JUMPDEST PUSH1 0x0 PUSH1 0x1F NOT PUSH1 0x1F DUP4 ADD AND SWAP1 POP SWAP2 SWAP1 POP JUMP JUMPDEST PUSH1 0x0 PUSH2 0xA86 DUP3 PUSH2 0xA1B JUMP JUMPDEST PUSH2 0xA90 DUP2 DUP6 PUSH2 0xA26 JUMP JUMPDEST SWAP4 POP PUSH2 0xAA0 DUP2 DUP6 PUSH1 0x20 DUP7 ADD PUSH2 0xA37 JUMP JUMPDEST PUSH2 0xAA9 DUP2 PUSH2 0xA6A JUMP JUMPDEST DUP5 ADD SWAP2 POP POP SWAP3 SWAP2 POP POP JUMP JUMPDEST PUSH1 0x0 PUSH2 0xABF DUP3 PUSH2 0x8DD JUMP JUMPDEST SWAP1 POP SWAP2 SWAP1 POP JUMP JUMPDEST PUSH2 0xACF DUP2 PUSH2 0xAB4 JUMP JUMPDEST DUP3 MSTORE POP POP JUMP JUMPDEST PUSH1 0x0 PUSH1 0xA0 DUP3 ADD SWAP1 POP DUP2 DUP2 SUB PUSH1 0x0 DUP4 ADD MSTORE PUSH2 0xAEF DUP2 DUP9 PUSH2 0xA7B JUMP JUMPDEST SWAP1 POP PUSH2 0xAFE PUSH1 0x20 DUP4 ADD DUP8 PUSH2 0x8B3 JUMP JUMPDEST PUSH2 0xB0B PUSH1 0x40 DUP4 ADD DUP7 PUSH2 0xAC6 JUMP JUMPDEST PUSH2 0xB18 PUSH1 0x60 DUP4 ADD DUP6 PUSH2 0x974 JUMP JUMPDEST PUSH2 0xB25 PUSH1 0x80 DUP4 ADD DUP5 PUSH2 0x8B3 JUMP JUMPDEST SWAP7 SWAP6 POP POP POP POP POP POP JUMP JUMPDEST PUSH1 0x0 DUP1 REVERT JUMPDEST PUSH1 0x0 DUP1 REVERT JUMPDEST PUSH32 0x4E487B7100000000000000000000000000000000000000000000000000000000 PUSH1 0x0 MSTORE PUSH1 0x41 PUSH1 0x4 MSTORE PUSH1 0x24 PUSH1 0x0 REVERT JUMPDEST PUSH2 0xB71 DUP3 PUSH2 0xA6A JUMP JUMPDEST DUP2 ADD DUP2 DUP2 LT PUSH8 0xFFFFFFFFFFFFFFFF DUP3 GT OR ISZERO PUSH2 0xB90 JUMPI PUSH2 0xB8F PUSH2 0xB39 JUMP JUMPDEST JUMPDEST DUP1 PUSH1 0x40 MSTORE POP POP POP JUMP JUMPDEST PUSH1 0x0 PUSH2 0xBA3 PUSH2 0x83C JUMP JUMPDEST SWAP1 POP PUSH2 0xBAF DUP3 DUP3 PUSH2 0xB68 JUMP JUMPDEST SWAP2 SWAP1 POP JUMP JUMPDEST PUSH1 0x0 PUSH8 0xFFFFFFFFFFFFFFFF DUP3 GT ISZERO PUSH2 0xBCF JUMPI PUSH2 0xBCE PUSH2 0xB39 JUMP JUMPDEST JUMPDEST PUSH2 0xBD8 DUP3 PUSH2 0xA6A JUMP JUMPDEST SWAP1 POP PUSH1 0x20 DUP2 ADD SWAP1 POP SWAP2 SWAP1 POP JUMP JUMPDEST DUP3 DUP2 DUP4 CALLDATACOPY PUSH1 0x0 DUP4 DUP4 ADD MSTORE POP POP POP JUMP JUMPDEST PUSH1 0x0 PUSH2 0xC07 PUSH2 0xC02 DUP5 PUSH2 0xBB4 JUMP JUMPDEST PUSH2 0xB99 JUMP JUMPDEST SWAP1 POP DUP3 DUP2 MSTORE PUSH1 0x20 DUP2 ADD DUP5 DUP5 DUP5 ADD GT ISZERO PUSH2 0xC23 JUMPI PUSH2 0xC22 PUSH2 0xB34 JUMP JUMPDEST JUMPDEST PUSH2 0xC2E DUP5 DUP3 DUP6 PUSH2 0xBE5 JUMP JUMPDEST POP SWAP4 SWAP3 POP POP POP JUMP JUMPDEST PUSH1 0x0 DUP3 PUSH1 0x1F DUP4 ADD SLT PUSH2 0xC4B JUMPI PUSH2 0xC4A PUSH2 0xB2F JUMP JUMPDEST JUMPDEST DUP2 CALLDATALOAD PUSH2 0xC5B DUP5 DUP3 PUSH1 0x20 DUP7 ADD PUSH2 0xBF4 JUMP JUMPDEST SWAP2 POP POP SWAP3 SWAP2 POP POP JUMP JUMPDEST PUSH1 0x0 DUP1 PUSH1 0x0 PUSH1 0x60 DUP5 DUP7 SUB SLT ISZERO PUSH2 0xC7D JUMPI PUSH2 0xC7C PUSH2 0x846 JUMP JUMPDEST JUMPDEST PUSH1 0x0 DUP5 ADD CALLDATALOAD PUSH8 0xFFFFFFFFFFFFFFFF DUP2 GT ISZERO PUSH2 0xC9B JUMPI PUSH2 0xC9A PUSH2 0x84B JUMP JUMPDEST JUMPDEST PUSH2 0xCA7 DUP7 DUP3 DUP8 ADD PUSH2 0xC36 JUMP JUMPDEST SWAP4 POP POP PUSH1 0x20 PUSH2 0xCB8 DUP7 DUP3 DUP8 ADD PUSH2 0x871 JUMP JUMPDEST SWAP3 POP POP PUSH1 0x40 PUSH2 0xCC9 DUP7 DUP3 DUP8 ADD PUSH2 0x926 JUMP JUMPDEST SWAP2 POP POP SWAP3 POP SWAP3 POP SWAP3 JUMP JUMPDEST PUSH32 0x4E487B7100000000000000000000000000000000000000000000000000000000 PUSH1 0x0 MSTORE PUSH1 0x32 PUSH1 0x4 MSTORE PUSH1 0x24 PUSH1 0x0 REVERT JUMPDEST PUSH32 0x4E487B7100000000000000000000000000000000000000000000000000000000 PUSH1 0x0 MSTORE PUSH1 0x12 PUSH1 0x4 MSTORE PUSH1 0x24 PUSH1 0x0 REVERT JUMPDEST PUSH32 0x4E487B7100000000000000000000000000000000000000000000000000000000 PUSH1 0x0 MSTORE PUSH1 0x11 PUSH1 0x4 MSTORE PUSH1 0x24 PUSH1 0x0 REVERT JUMPDEST PUSH1 0x0 PUSH2 0xD6B DUP3 PUSH2 0x850 JUMP JUMPDEST SWAP2 POP PUSH2 0xD76 DUP4 PUSH2 0x850 JUMP JUMPDEST SWAP3 POP DUP3 PUSH2 0xD86 JUMPI PUSH2 0xD85 PUSH2 0xD02 JUMP JUMPDEST JUMPDEST DUP3 DUP3 DIV SWAP1 POP SWAP3 SWAP2 POP POP JUMP JUMPDEST PUSH32 0x4E487B7100000000000000000000000000000000000000000000000000000000 PUSH1 0x0 MSTORE PUSH1 0x22 PUSH1 0x4 MSTORE PUSH1 0x24 PUSH1 0x0 REVERT JUMPDEST PUSH1 0x0 PUSH1 0x2 DUP3 DIV SWAP1 POP PUSH1 0x1 DUP3 AND DUP1 PUSH2 0xDD8 JUMPI PUSH1 0x7F DUP3 AND SWAP2 POP JUMPDEST PUSH1 0x20 DUP3 LT DUP2 SUB PUSH2 0xDEB JUMPI PUSH2 0xDEA PUSH2 0xD91 JUMP JUMPDEST JUMPDEST POP SWAP2 SWAP1 POP JUMP JUMPDEST PUSH1 0x0 DUP2 SWAP1 POP DUP2 PUSH1 0x0 MSTORE PUSH1 0x20 PUSH1 0x0 KECCAK256 SWAP1 POP SWAP2 SWAP1 POP JUMP JUMPDEST PUSH1 0x0 PUSH1 0x20 PUSH1 0x1F DUP4 ADD DIV SWAP1 POP SWAP2 SWAP1 POP JUMP JUMPDEST PUSH1 0x0 DUP3 DUP3 SHL SWAP1 POP SWAP3 SWAP2 POP POP JUMP JUMPDEST PUSH1 0x0 PUSH1 0x8 DUP4 MUL PUSH2 0xE53 PUSH32 0xFFFFFFFFFFFFFFFFFFFFFFFFFFFFFFFFFFFFFFFFFFFFFFFFFFFFFFFFFFFFFFFF DUP3 PUSH2 0xE16 JUMP JUMPDEST PUSH2 0xE5D DUP7 DUP4 PUSH2 0xE16 JUMP JUMPDEST SWAP6 POP DUP1 NOT DUP5 AND SWAP4 POP DUP1 DUP7 AND DUP5 OR SWAP3 POP POP POP SWAP4 SWAP3 POP POP POP JUMP JUMPDEST PUSH1 0x0 DUP2 SWAP1 POP SWAP2 SWAP1 POP JUMP JUMPDEST PUSH1 0x0 PUSH2 0xE9A PUSH2 0xE95 PUSH2 0xE90 DUP5 PUSH2 0x850 JUMP JUMPDEST PUSH2 0xE75 JUMP JUMPDEST PUSH2 0x850 JUMP JUMPDEST SWAP1 POP SWAP2 SWAP1 POP JUMP JUMPDEST PUSH1 0x0 DUP2 SWAP1 POP SWAP2 SWAP1 POP JUMP JUMPDEST PUSH2 0xEB4 DUP4 PUSH2 0xE7F JUMP JUMPDEST PUSH2 0xEC8 PUSH2 0xEC0 DUP3 PUSH2 0xEA1 JUMP JUMPDEST DUP5 DUP5 SLOAD PUSH2 0xE23 JUMP JUMPDEST DUP3 SSTORE POP POP POP POP JUMP JUMPDEST PUSH1 0x0 SWAP1 JUMP JUMPDEST PUSH2 0xEDD PUSH2 0xED0 JUMP JUMPDEST PUSH2 0xEE8 DUP2 DUP5 DUP5 PUSH2 0xEAB JUMP JUMPDEST POP POP POP JUMP JUMPDEST JUMPDEST DUP2 DUP2 LT ISZERO PUSH2 0xF0C JUMPI PUSH2 0xF01 PUSH1 0x0 DUP3 PUSH2 0xED5 JUMP JUMPDEST PUSH1 0x1 DUP2 ADD SWAP1 POP PUSH2 0xEEE JUMP JUMPDEST POP POP JUMP JUMPDEST PUSH1 0x1F DUP3 GT ISZERO PUSH2 0xF51 JUMPI PUSH2 0xF22 DUP2 PUSH2 0xDF1 JUMP JUMPDEST PUSH2 0xF2B DUP5 PUSH2 0xE06 JUMP JUMPDEST DUP2 ADD PUSH1 0x20 DUP6 LT ISZERO PUSH2 0xF3A JUMPI DUP2 SWAP1 POP JUMPDEST PUSH2 0xF4E PUSH2 0xF46 DUP6 PUSH2 0xE06 JUMP JUMPDEST DUP4 ADD DUP3 PUSH2 0xEED JUMP JUMPDEST POP POP JUMPDEST POP POP POP JUMP JUMPDEST PUSH1 0x0 DUP3 DUP3 SHR SWAP1 POP SWAP3 SWAP2 POP POP JUMP JUMPDEST PUSH1 0x0 PUSH2 0xF74 PUSH1 0x0 NOT DUP5 PUSH1 0x8 MUL PUSH2 0xF56 JUMP JUMPDEST NOT DUP1 DUP4 AND SWAP2 POP POP SWAP3 SWAP2 POP POP JUMP JUMPDEST PUSH1 0x0 PUSH2 0xF8D DUP4 DUP4 PUSH2 0xF63 JUMP JUMPDEST SWAP2 POP DUP3 PUSH1 0x2 MUL DUP3 OR SWAP1 POP SWAP3 SWAP2 POP POP JUMP JUMPDEST PUSH2 0xFA6 DUP3 PUSH2 0xA1B JUMP JUMPDEST PUSH8 0xFFFFFFFFFFFFFFFF DUP2 GT ISZERO PUSH2 0xFBF JUMPI PUSH2 0xFBE PUSH2 0xB39 JUMP JUMPDEST JUMPDEST PUSH2 0xFC9 DUP3 SLOAD PUSH2 0xDC0 JUMP JUMPDEST PUSH2 0xFD4 DUP3 DUP3 DUP6 PUSH2 0xF10 JUMP JUMPDEST PUSH1 0x0 PUSH1 0x20 SWAP1 POP PUSH1 0x1F DUP4 GT PUSH1 0x1 DUP2 EQ PUSH2 0x1007 JUMPI PUSH1 0x0 DUP5 ISZERO PUSH2 0xFF5 JUMPI DUP3 DUP8 ADD MLOAD SWAP1 POP JUMPDEST PUSH2 0xFFF DUP6 DUP3 PUSH2 0xF81 JUMP JUMPDEST DUP7 SSTORE POP PUSH2 0x1067 JUMP JUMPDEST PUSH1 0x1F NOT DUP5 AND PUSH2 0x1015 DUP7 PUSH2 0xDF1 JUMP JUMPDEST PUSH1 0x0 JUMPDEST DUP3 DUP2 LT ISZERO PUSH2 0x103D JUMPI DUP5 DUP10 ADD MLOAD DUP3 SSTORE PUSH1 0x1 DUP3 ADD SWAP2 POP PUSH1 0x20 DUP6 ADD SWAP5 POP PUSH1 0x20 DUP2 ADD SWAP1 POP PUSH2 0x1018 JUMP JUMPDEST DUP7 DUP4 LT ISZERO PUSH2 0x105A JUMPI DUP5 DUP10 ADD MLOAD PUSH2 0x1056 PUSH1 0x1F DUP10 AND DUP3 PUSH2 0xF63 JUMP JUMPDEST DUP4 SSTORE POP JUMPDEST PUSH1 0x1 PUSH1 0x2 DUP9 MUL ADD DUP9 SSTORE POP POP POP JUMPDEST POP POP POP POP POP POP JUMP JUMPDEST PUSH1 0x0 PUSH2 0x107A DUP3 PUSH2 0x850 JUMP JUMPDEST SWAP2 POP PUSH32 0xFFFFFFFFFFFFFFFFFFFFFFFFFFFFFFFFFFFFFFFFFFFFFFFFFFFFFFFFFFFFFFFF DUP3 SUB PUSH2 0x10AC JUMPI PUSH2 0x10AB PUSH2 0xD31 JUMP JUMPDEST JUMPDEST PUSH1 0x1 DUP3 ADD SWAP1 POP SWAP2 SWAP1 POP JUMP INVALID LOG2 PUSH5 0x6970667358 0x22 SLT KECCAK256 DIFFICULTY 0xD6 0xE9 0xBA MOD REVERT 0x5E PUSH8 0x20201DC268391487 0xB7 SWAP13 SELFBALANCE POP 0xE3 0xA9 0xEA 0xC9 SWAP10 SWAP1 0xAE BLOCKHASH 0xAC PUSH26 0xADF964736F6C634300080F003300000000000000000000000000 "},"gasEstimates":{"creation":{"codeDepositCost":"866600","executionCost":"infinite","totalCost":"infinite"},"external":{"addContributers()":"51021","approveRequest(uint256)":"infinite","campaignRequest(uint256)":"infinite","contarctSummary()":"infinite","contributers(address)":"2890","contributersCount()":"2539","createRequest(string,uint256,address)":"infinite","finalizeRequest(uint256)":"infinite","getRequestsCount()":"2468","manager()":"2581","minimunContribution()":"2473"}},"methodIdentifiers":{"addContributers()":"b64bdf93","approveRequest(uint256)":"d7d1bbdb","campaignRequest(uint256)":"754d4ca4","contarctSummary()":"6d1e0903","contributers(address)":"34b66460","contributersCount()":"e9f146a3","createRequest(string,uint256,address)":"8a9cfd55","finalizeRequest(uint256)":"03441006","getRequestsCount()":"3410452a","manager()":"481c6a75","minimunContribution()":"a7f33715"}},"storageLayout":{"storage":[{"astId":58,"contract":"Campaign.sol:Campaign","label":"campaignRequest","offset":0,"slot":"0","type":"t_array(t_struct(Request)54_storage)dyn_storage"},{"astId":60,"contract":"Campaign.sol:Campaign","label":"manager","offset":0,"slot":"1","type":"t_address"},{"astId":62,"contract":"Campaign.sol:Campaign","label":"minimunContribution","offset":0,"slot":"2","type":"t_uint256"},{"astId":64,"contract":"Campaign.sol:Campaign","label":"contributersCount","offset":0,"slot":"3","type":"t_uint256"},{"astId":68,"contract":"Campaign.sol:Campaign","label":"contributers","offset":0,"slot":"4","type":"t_mapping(t_address,t_bool)"}],"types":{"t_address":{"encoding":"inplace","label":"address","numberOfBytes":"20"},"t_address_payable":{"encoding":"inplace","label":"address payable","numberOfBytes":"20"},"t_array(t_struct(Request)54_storage)dyn_storage":{"base":"t_struct(Request)54_storage","encoding":"dynamic_array","label":"struct Campaign.Request[]","numberOfBytes":"32"},"t_bool":{"encoding":"inplace","label":"bool","numberOfBytes":"1"},"t_mapping(t_address,t_bool)":{"encoding":"mapping","key":"t_address","label":"mapping(address => bool)","numberOfBytes":"32","value":"t_bool"},"t_string_storage":{"encoding":"bytes","label":"string","numberOfBytes":"32"},"t_struct(Request)54_storage":{"encoding":"inplace","label":"struct Campaign.Request","members":[{"astId":41,"contract":"Campaign.sol:Campaign","label":"description","offset":0,"slot":"0","type":"t_string_storage"},{"astId":43,"contract":"Campaign.sol:Campaign","label":"moneyRequired","offset":0,"slot":"1","type":"t_uint256"},{"astId":45,"contract":"Campaign.sol:Campaign","label":"recepient","offset":0,"slot":"2","type":"t_address_payable"},{"astId":47,"contract":"Campaign.sol:Campaign","label":"isCompleted","offset":20,"slot":"2","type":"t_bool"},{"astId":49,"contract":"Campaign.sol:Campaign","label":"approversCount","offset":0,"slot":"3","type":"t_uint256"},{"astId":53,"contract":"Campaign.sol:Campaign","label":"approvers","offset":0,"slot":"4","type":"t_mapping(t_address,t_bool)"}],"numberOfBytes":"160"},"t_uint256":{"encoding":"inplace","label":"uint256","numberOfBytes":"32"}}},"userdoc":{"kind":"user","methods":{},"version":1}}